:020000040800F2
:1000000070070020890100081D2600081F2600082F
:1000100023260008272600082B26000800000000E1
:100020000000000000000000000000002F26000873
:10003000312600080000000033260008352600089D
:10004000A3010008A3010008A3010008A301000800
:10005000A3010008A3010008872A0008A3010008E3
:10006000A12A0008A3010008A3010008A3010008B9
:10007000A3010008A3010008A3010008A3010008D0
:10008000A3010008A3010008A3010008A3010008C0
:10009000A3010008A3010008A3010008A3010008B0
:1000A000A3010008A3010008A3010008A3010008A0
:1000B000A3010008A3010008A3010008A301000890
:1000C000A3010008A3010008A3010008A301000880
:1000D000A30100086126000807270008A301000803
:1000E000A3010008A3010008A301000800F002F822
:1000F00000F03AF80AA090E8000C82448344AAF188
:100100000107DA4501D100F02FF8AFF2090EBAE885
:100110000F0013F0010F18BFFB1A43F0010318473B
:10012000D0320000F0320000103A24BF78C878C105
:10013000FAD8520724BF30C830C144BF04680C60ED
:10014000704700000023002400250026103A28BF35
:1001500078C1FBD8520728BF30C148BF0B60704739
:100160001FB51FBD10B510BD02F06AFE1146FFF7A6
:10017000F7FF02F095F802F088FE03B4FFF7F2FFF4
:1001800003BC02F089FE0000094880470948004787
:10019000FEE7FEE7FEE7FEE7FEE7FEE7FEE7FEE737
:1001A000FEE7FEE704480549054A064B7047000094
:1001B0001B250008ED0000087001002070070020DA
:1001C000700300207003002031490143314A11605F
:1001D000704770B5002100230F22C47804B32D4C62
:1001E000246804F4E064C4F5E064210AC1F1040366
:1001F000CA40447804FA03F1847814402143090189
:10020000254C0678A155047804F01F050124AC4064
:1002100005786D11AD0005F1E025C5F8004109E054
:10022000047804F01F050124AC401C4D06787611BB
:1002300045F8264070BD1A4A0A400243154B1B1F61
:100240001A60704739B1134A121D12680243114BEC
:100250001B1D1A6006E00F4A121D126882430D4BE7
:100260001B1D1A607047042808D14FF0E02109696E
:1002700041F004014FF0E022116107E04FF0E0216E
:10028000096921F004014FF0E0221161704700007C
:100290000000FA050CED00E000E400E080E100E081
:1002A00080FFFF1FDF48006840F00100DD49086063
:1002B00008464068DC490840DA494860084600685A
:1002C000DA490840D74908600846006820F48020D1
:1002D00008600846406820F4FE0048604FF41F00A4
:1002E00088607047CF49096821F48031CD4A116098
:1002F0001146096821F480211160B0F5803F03D0D8
:10030000B0F5802F0ED106E0C649096841F480316E
:10031000C44A116007E0C349096841F4A021C14AF9
:10032000116000E000BF00BF704710B50146002219
:10033000002300204A11012A02D1BA4C236806E0AA
:10034000022A02D1B74C236A01E0B64C636A01F07D
:100350001F02012494401C400CB1012000E0002049
:1003600010BD38B5002000900024002500BF3120CA
:10037000FFF7DBFF05460098401C00900098B0F5A1
:10038000A06F01D0002DF2D03120FFF7CEFF08B1D1
:10039000012400E00024204638BD01460020A14A87
:1003A000106820F0F80040EAC10010607047A049D2
:1003B00008607047024600209A4B586820F47C1071
:1003C00042EA01031843974B586070479849086602
:1003D000704701460020934A506820F0030008430C
:1003E000506070478F48406800F00C00704701462D
:1003F00000208C4A506820F0F0000843506070479D
:1004000001460020874A506820F4E06008435060AD
:10041000704701460020834A506820F4605040EA4B
:10042000C1005060704729B17E4A527A02437D4B29
:100430005A7204E07B4A527A82437A4B5A7270476E
:100440007B49D8310860704701460020754A5068E2
:1004500020F440400843506070470021714A203228
:100460001170704A82F82010012802D004280AD1A5
:1004700004E001216B4A2032117005E00521694A30
:100480002032117000E000BF00BF7047694908606A
:1004900070476449096A0143624A116270476549BD
:1004A00044390860704730B5002100220024002341
:1004B0005C4D6D6805F00C0121B1042905D00829B7
:1004C00023D105E05C4D056022E05B4D05601FE037
:1004D000544D6D6805F47012524D6D6805F480340A
:1004E000022505EB92421CB9544D554305600BE0C3
:1004F0004C4D6D6805F400351DB1504D55430560F8
:1005000002E04D4D5543056002E04B4D056000BFD4
:1005100000BF444D6D6805F0F0010909484D6B5C62
:100520000568DD4045603F4D6D6805F4E061090AEE
:10053000434D6B5C4568DD4085603A4D6D6805F460
:100540006051C90A3E4D6B5C4568DD40C560354D64
:100550006D6805F44041890B3A4D6B5CC568B5FB8D
:10056000F3F5056130BD29B12E4A526902432D4B86
:100570005A6104E02B4A526982432A4B5A61704700
:1005800029B1284A92690243264B9A6104E0254A20
:1005900092698243234B9A61704729B1214AD269FB
:1005A0000243204BDA6104E01E4AD26982431D4BAC
:1005B000DA61704729B11B4AD2680243194BDA60ED
:1005C00004E0184AD2688243164BDA60704729B1BA
:1005D000144A12690243134B1A6104E0114A12696A
:1005E0008243104B1A6170471249403908607047C6
:1005F0000F49C86470470B49C87170470948406A81
:1006000040F0807007494862704701460020054A63
:1006100092680A400AB1012000E0002070470149B9
:1006200088727047001002400000FFF8FFFFF6FEDE
:10063000000042428004424200127A0000093D005C
:10064000000000201000002001460020FE4A106833
:1006500000F03800084310607047FB49096821F03A
:100660000801F94A11601146096801431160704799
:10067000F549096821F01001F34A11601146096833
:10068000014311607047F148EF494860F048486005
:100690007047EE48EC494860ED4848607047EA48CA
:1006A000006940F08000E84908617047E648006949
:1006B00040F08000E449086170470420E249C968BD
:1006C00001F0010109B101200EE0DF49C96801F024
:1006D000040109B1022007E0DB49C96801F01001FB
:1006E00009B1032000E00420704700B5024604234E
:1006F000FFF7E3FF034603E0FFF7DFFF0346521E69
:10070000012B01D1002AF7D102B90523184600BDFB
:1007100030B5044604254FF43020FFF7E6FF0546C8
:10072000042D17D1C848006940F00200C64908618D
:1007300008464461006940F0400008614FF43020F1
:10074000FFF7D3FF0546C048006941F6FD71084038
:10075000BD490861284630BD10B504244FF430204F
:10076000FFF7C3FF0446042C16D1B748006940F0D8
:100770000400B54908610846006940F0400008617E
:100780004FF43020FFF7B1FF0446AF48006941F64F
:10079000FB710840AC490861204610BD00B5024617
:1007A0000423FFF78AFF034603E0FFF786FF0346B3
:1007B000521E012B01D1002AF7D102B90523184698
:1007C00000BD10B504244FF43020FFF7E7FF0446C6
:1007D000042C16D19C48006940F004009A49086135
:1007E0000846006940F0400008614FF43020FFF7F0
:1007F000D5FF04469448006941F6FB7108409249D0
:100800000861204610BD00208F49C96901F002012E
:1008100009B1012000E00020704730B5A52504246F
:10082000FFF7F1FF00B100254FF43020FFF75DFF27
:100830000446042C3AD185488349886084488860FE
:100840000846006940F0200008610846006940F051
:10085000400008614FF43020FFF747FF0446042CA6
:100860001BD17948006941F6DF710840764908617B
:100870000846006940F01000086176480580E002F3
:10088000FFF733FF0446052C10D06F48006941F68E
:10089000EF7108406C49086108E0052C06D06A48F1
:1008A000006941F6EF71084067490861204630BD94
:1008B00078B506460C46042500200090E802FFF7B4
:1008C00014FF0546042D24D15F48006940F0010063
:1008D0005D4908613480E802FFF707FF0546042DF3
:1008E00010D1B01C0090200C00990880E802FFF79E
:1008F000FCFE05465448006941F6FE710840524925
:10090000086106E05048006941F6FE7108404E4912
:100910000861284678BD70B504460D460426F002ED
:10092000FFF7E3FE0646042E11D14748006940F068
:100930000100454908612580F002FFF7D6FE064612
:100940004148006941F6FE7108403F490861304660
:1009500070BD70B505460E460424E002FFF7C5FEE3
:100960000446042C17D139483749886038488860D4
:100970000846006940F0100008612E80E002FFF791
:10098000B4FE0446052C06D02F48006941F6EF71ED
:1009900008402D490861204670BD2DE9F04304460A
:1009A0004FF6FF763746B046B1460425E443E6B23B
:1009B000C4F30727C4F307484FEA1469E802FFF7B6
:1009C00094FE0546042D49D120481F4988602048DF
:1009D00088600846006940F010000861FF2E06D0CC
:1009E0001C4808300680E802FFF77FFE0546042D0C
:1009F00008D1FF2F06D017480A300780E802FFF71A
:100A000074FE0546042D0AD1B8F1FF0F07D0114836
:100A10000C30A0F80080E802FFF767FE0546042DC1
:100A20000AD1B9F1FF0F07D00A480E30A0F80090A4
:100A3000E802FFF75AFE0546052D0FD0024800696F
:100A400041F6EF71084007E00020024023016745AE
:100A5000AB89EFCD00F8FF1F664908612846BDE865
:100A6000F08330B5054604244FF43020FFF73DFEF7
:100A70000446042C41D160485E4988605F48886024
:100A80000846006940F0200008610846006940F00F
:100A9000400008614FF43020FFF727FE0446042C85
:100AA00022D15448006941F6DF710840514908617C
:100AB0000846006940F0100008611DB1002050494F
:100AC000088002E0A5204E4908804FF43020FFF74F
:100AD0000CFE0446052C10D04648006941F6EF7123
:100AE00008404449086108E0052C06D041480069E7
:100AF00041F6DF7108403F490861204630BDF0B53E
:100B000005460E46174604243B483A4988603B4850
:100B10008860E002FFF7E9FD0446042C19D135484E
:100B2000006940F010003349086147F0F800304395
:100B300028433349891C0880E002FFF7D6FD0446AC
:100B4000052C06D02B48006941F6EF710840294971
:100B500008612046F0BD2748C069800870472548D5
:100B6000006A704700202349096801F0200109B19B
:100B7000012000E00020704729B11E4A126902439B
:100B80001C4B1A6104E01B4A12698243194B1A611B
:100B9000704701460020012908D1164AD26902F0A7
:100BA00001020AB1012008E0002006E0114AD268E3
:100BB0000A400AB1012000E0002070470D49C860DA
:100BC000704704200B49C96801F0010109B10120F7
:100BD0000EE00849C96801F0040109B1022007E0EC
:100BE0000449C96801F0100109B1032000E00420A4
:100BF000704700000020024023016745AB89EFCD1C
:100C000000F8FF1F10B50446FE48844208D10121B8
:100C1000C014FFF7CFFC0021E014FFF7CBFCC4E0C9
:100C2000B4F1804F08D101210846FFF7D0FC002124
:100C30000120FFF7CCFCB8E0F348844208D1012141
:100C40000220FFF7C4FC00210220FFF7C0FCACE04B
:100C5000EE48844208D101210420FFF7B8FC0021AE
:100C60000420FFF7B4FCA0E0E948844208D1012148
:100C70000820FFF7ACFC00210820FFF7A8FC94E057
:100C8000E448844208D101211020FFF7A0FC002194
:100C90001020FFF79CFC88E0DF48844208D1012146
:100CA0002020FFF794FC00212020FFF790FC7CE03F
:100CB000DA48844208D101214014FFF77BFC00216F
:100CC0006014FFF777FC70E0D548844209D1012118
:100CD000C804FFF76FFC00214FF40020FFF76AFC07
:100CE00063E0D048844209D101210805FFF762FC86
:100CF00000214FF48010FFF75DFC56E0CA488442A3
:100D000009D101214805FFF755FC00214FF40010DF
:100D1000FFF750FC49E0C548844208D1012140203A
:100D2000FFF755FC00214020FFF751FC3DE0C04893
:100D3000844208D101218020FFF749FC0021802056
:100D4000FFF745FC31E0BB48844208D10121801502
:100D5000FFF73DFC0021A015FFF739FC25E0B64860
:100D6000844209D101210804FFF724FC00214FF43B
:100D70008030FFF71FFC18E0B048844209D1012100
:100D80004804FFF717FC00214FF40030FFF712FC76
:100D90000BE0AB48844208D101218804FFF70AFC2C
:100DA00000214FF48020FFF705FC10BD00220288CF
:100DB000944B98420ED0994B98420BD0B0F1804F93
:100DC00008D0914B984205D0904B984202D0904B5E
:100DD000984204D14FF68F731A404B881A438D4BBB
:100DE000984207D08C4B984204D04FF6FF431A40EC
:100DF000CB881A4302808B8883850B880385814BBF
:100E000098420BD0854B984208D08B4B984205D026
:100E10008A4B984202D08A4B984201D10B7A0386C2
:100E200001238382704770B5002400220023058CC3
:100E30004FF6FE7635400584028C8388048B4FF68E
:100E40008F752C40B51E2C400D882C43751E2A40F2
:100E50000D892A434D882A436A4DA8420BD06F4D15
:100E6000A84208D0744DA84205D0744DA84202D0C3
:100E7000734DA84213D14FF6F7752A404D892A4386
:100E80004FF6FB752A408D882A434FF6FF652B40AD
:100E90004FF6FF552B408D892B43CD892B43838003
:100EA0000483CD888586028470BD70B5002400223D
:100EB0000023058C4FF6EF7635400584028C83883D
:100EC000048B48F6FF752C404FF6FF452C400D88EB
:100ED0004FF6FF7606EA05252C434FF6DF752A40CC
:100EE0000D8906EA05152A434D8806EA05152A43A9
:100EF000444DA84202D0494DA8421DD14FF67F75FE
:100F00002A404D894FF6FF7606EA05152A434FF62B
:100F1000BF752A408D8806EA05152A434FF6FF352E
:100F20002B404FF2FF752B408D8906EA85052B4338
:100F3000CD8906EA85052B4383800483CD88058708
:100F4000028470BD70B5002400220023058C4FF68A
:100F5000FF6635400584028C8388848B4FF68F753D
:100F60002C404FF6FC752C400D882C434FF6FF5556
:100F70002A400D894FF6FF7606EA05252A434D885B
:100F800006EA05252A431F4DA84202D0234DA84258
:100F90001DD14FF2FF752A404D894FF6FF7606EAC4
:100FA00005252A434FF6FF352A408D8806EA052598
:100FB0002A434EF6FF752B404DF6FF752B408D8969
:100FC00006EA05152B43CD8906EA05152B438380D8
:100FD0008483CD888587028470BD70B5002200238C
:100FE0000024058C4EF6FF7635400584038C8488FA
:100FF000828B48F6FF752A404FF6FF452A400D8840
:1010000020E00000002C01400004004000080040E7
:10101000000C00400010004000140040003401406B
:10102000004C0140005001400054014000180040B5
:10103000001C0040002000400040014000440140EE
:10104000004801404FF6FF7606EA05252A434DF693
:10105000FF752B400D8906EA05352B434D8806EABE
:1010600005352B43FA4DA84202D0FA4DA84208D1CB
:101070004BF6FF752C408D894FF6FF7606EA8515F5
:101080002C4384808283CD88A0F84050038470BDB7
:10109000828B4FF2FF331A408283828B4FF6FF73AD
:1010A00003EA01231A4382837047F0B50C461546C4
:1010B000002200210026078C4EF6FF7C07EA0C0771
:1010C0000784828B018C4FF6FF7707EA043640F6DF
:1010D000FF473A404FF6FF7707EA05273A434FF6B6
:1010E000FF7707EA03373A43D94FB8420ED0D94FBA
:1010F000B8420BD0B0F1804F08D0D74FB84205D0DE
:10110000D64FB84202D0D64FB84206D14DF6FF773F
:10111000394046F48057394305E047F6FF573940D8
:1011200044F48057394382830184F0BD828B4FF6AB
:10113000F3731A408283828B0A4382837047F0B52F
:101140000C461546002200210026078C4FF6FF6C46
:1011500007EA0C070784828B018C4FF6FF7707EABA
:1011600004264FF60C773A404FF6FF7707EA03174D
:101170002F433A43B64FB8420ED0B64FB8420BD0C9
:10118000B0F1804F08D0B44FB84205D0B34FB84249
:1011900002D0B34FB84206D14FF6FF57394046F45C
:1011A0008077394305E04FF2FF57394044F48077A8
:1011B000394382830184F0BD028B4FF2FF331A4022
:1011C0000283028B4FF6FF7303EA01231A43028363
:1011D0007047F0B50C461546002200210026078C0A
:1011E0004FF6EF7C07EA0C070784028B018C4FF661
:1011F000FF7707EA041640F6FF473A404FF6FF77BD
:1012000007EA03373A434FF6FF7707EA05273A43E1
:101210008F4FB8420ED08F4FB8420BD0B0F1804FF5
:1012200008D08D4FB84205D08C4FB84202D08C4FB9
:10123000B84206D14FF6DF77394046F01007394300
:1012400005E04FF65F77394044F0100739430283D9
:101250000184F0BD028B4FF6F3731A400283028BB8
:101260000A4302837047F0B50C4615460022002160
:10127000068C4FF6FE773E400684028B018C4FF6BB
:101280000C7632407E1C06EA03162E433243704E23
:10129000B0420ED06F4EB0420BD0B0F1804F08D0AC
:1012A0006D4EB04205D06D4EB04202D06C4EB04291
:1012B00006D14FF6FD76314044F00106314305E09A
:1012C0004FF6F576314044F0010631430283018444
:1012D000F0BD70B505460C465D4885420ED05D48B0
:1012E00085420BD0B5F1804F08D05B48854205D0D0
:1012F0005A48854202D05A48854200D100E000BFDA
:10130000208850B92389A28861882846FFF7ABFF5F
:10131000E1882846FFF79EFF25E0208804280AD1AF
:101320002389A28861882846FFF753FFE188284671
:10133000FFF742FF17E0208808280AD12389A288F6
:1013400061882846FFF7FBFEE1882846FFF7EEFE9E
:1013500009E02389A28861882846FFF7A6FEE18874
:101360002846FFF795FE70BD2DE9F04105460C4675
:1013700000260127608808B9022600E00026A08820
:10138000012801D1022700E001272088A0B9238984
:10139000A28861882846FFF766FFE1882846FFF7A4
:1013A00059FF23893A4631462846FFF712FFE18864
:1013B0002846FFF701FF13E02389A28861882846A9
:1013C000FFF707FFE1882846FFF7F6FE23893A4634
:1013D00031462846FFF747FFE1882846FFF73AFFE6
:1013E000BDE8F0810A884B881A438B881A43CB8862
:1013F0001A430B891A434B891A438B891A43A0F865
:10140000442070474FF6FF71818000210180C18028
:101410004180017270470021018041808180C1803C
:10142000018141818181C18170470021018041801A
:10143000012181800021C18001817047002101804C
:1014400041808180C180018141818181704700009C
:10145000002C01400034014000040040000800401E
:10146000000C004021B1028842F00102028004E039
:1014700002884FF6FE731A400280704731B1B0F80F
:10148000442042F40042A0F8442005E0B0F8442093
:10149000C2F30E02A0F8442070471AB183890B43AF
:1014A000838102E083898B43838170478182704707
:1014B00041EA0203A0F8483070471AB183890B4310
:1014C000838102E083898B438381704701894FF6D2
:1014D000F8721140018170470A46002101894FF6D8
:1014E0008F73194011430181704730B504460D4692
:1014F00029462046FFF7F0FF208940F007002081B1
:1015000030BD2DE9F04104460D4616461F46602DBC
:1015100006D13B46012231462046FFF75AFE05E040
:101520003B46012231462046FFF79DFE29462046D4
:10153000FFF7D2FF208940F007002081BDE8F0814D
:1015400030B50C4600210189C9B24FF6FF7505EA96
:101550000325154325432943018130BD2DE9F04181
:1015600005460E4617469846002443463A463146FD
:101570002846FFF7E5FF2C894FF6F870044044F049
:1015800007044FF68F70044044F070042C81BDE8CE
:10159000F081F0B504460D4616461F463B463246DE
:1015A00029462046FFF7CCFF208940F48040208167
:1015B000F0BD0185828270470A46002101884FF6FE
:1015C0008F731940114301807047F0B50C461546E2
:1015D0001E460021002200230189028B038C4FF656
:1015E000F877394021434FF6FC473A4040F2011763
:1015F0003A434FF6DD773B404FF6FF7707EA061791
:101600002F433B43018102830384F0BD0A4600213E
:10161000018B4FF68F7319401143018370470A46BF
:101620000021018B48F6FF7319404FF6FF7303EA60
:1016300002231943018370470A460021818B4FF62C
:101640008F7319401143818370470A460021818BB3
:1016500048F6FF7319404FF6FF7303EA022319435C
:101660008183704721B1028842F08002028004E049
:1016700002884FF67F731A400280704721B182883A
:1016800042F00402828004E082884FF6FB731A4025
:101690008280704721B1828842F00802828004E093
:1016A00082884FF6F7731A408280704721B1828892
:1016B00042F00102828004E082884FF6FE731A40F5
:1016C000828070470A460021018B4FF6F77319405C
:1016D0001143018370470A460021018B4FF2FF73CB
:1016E00019404FF6FF7303EA022319430183704741
:1016F0000A460021818B4FF6F7731940114381830D
:1017000070470A460021818B4FF2FF7319404FF654
:10171000FF7303EA02231943818370470A460021BD
:10172000018B4FF6FB7319401143018370470A4642
:101730000021018B4FF6FF3319404FF6FF7303EA88
:1017400002231943018370470A460021818B4FF61B
:10175000FB7319401143818370470A460021818B36
:101760004FF6FF3319404FF6FF7303EA0223194384
:10177000818370470A460021018B4FF67F73194021
:101780001143018370470A460021018BC1F30E010A
:101790004FF6FF7303EA02231943018370470A4699
:1017A0000021818B4FF67F7319401143818370476D
:1017B0000A460021818BC1F30E014FF6FF7303EA45
:1017C00002231943818370470A460021018C4FF69A
:1017D000FD7319401143018470470A460021018CB2
:1017E0004FF6F77319401143018470470A460021F0
:1017F000018C4FF6DF7319404FF6FF7303EA0213B3
:101800001943018470470A460021018C4FF67F730B
:1018100019404FF6FF7303EA02131943018470471E
:101820000A460021018C4FF6FF5319404FF6FF7313
:1018300003EA02231943018470470A460021018C00
:101840004FF2FF7319404FF6FF7303EA0223194367
:10185000018470470A460021018C4DF6FF73194040
:101860004FF6FF7303EA023319430184704730B522
:10187000002301248C40A3B2048C9C430484048C78
:1018800002FA01F5ADB22C43048430BD30B500231B
:1018900004248C40A3B2048C9C430484048C02FA7C
:1018A00001F5ADB22C43048430BD70B50346002071
:1018B00000241846183001258D40ACB21D8CA5437C
:1018C0001D8409B1082909D100EB6100056825F0E4
:1018D000700505600568154305600EE00D1FC5F332
:1018E0004E052844056825F4E045056005684FF677
:1018F000FF7606EA02263543056070BD21B10288F5
:1019000042F00202028004E002884FF6FD731A40A2
:101910000280704721B1028842F00402028004E094
:1019200002884FF6FB731A400280704721B182880B
:1019300042F08002828004E082884FF67F731A4072
:101940008280704702884FF6F7731A40028002883F
:101950000A430280704782884FF68F731A40828054
:1019600082880A438280704702894FF6F8731A40D2
:10197000028102890A430281704702894FF67F7310
:101980001A40028102890A430281704781847047AC
:1019900081857047818670470187704781877047CE
:1019A000A0F84010704702884FF6FF431A400280AB
:1019B00002880A43028070470146888E70470146BC
:1019C000088F70470146888F70470146B1F8400084
:1019D00070470146888C70470146088D7047024663
:1019E0000020138A0B400BB1012000E0002070475B
:1019F000CA430282704730B502460020002300240B
:101A0000158A05EA0103958905EA010413B10CB1B1
:101A1000012000E0002030BDCA4302827047000070
:101A200010B50446FB48844209D101218803FEF722
:101A3000C1FD00214FF48040FEF7BCFD32E0F648C6
:101A4000844209D101214804FEF7C1FD00214FF471
:101A50000030FEF7BCFD25E0F048844209D10121A9
:101A60008804FEF7B4FD00214FF48020FEF7AFFD9F
:101A700018E0EB48844209D10121C804FEF7A7FD14
:101A800000214FF40020FEF7A2FD0BE0E548844260
:101A900008D101210805FEF79AFD00214FF48010BE
:101AA000FEF795FD10BD2DE9F04786B005460E46C0
:101AB0000024A24600BFA1460027B08900B100BFA4
:101AC0002F462C8A4CF6FF700440F08804432C8289
:101AD000AC894EF6F3100440B0883189084371890F
:101AE00008430443AC81AC8A4FF6FF400440B08900
:101AF0000443AC8201A8FEF7D6FCC648874202D157
:101B0000DDF810A001E0DDF80CA0A88900F4004089
:101B100040B10AEBCA0000EB0A1031684900B0FB83
:101B2000F1F807E00AEBCA0000EB0A1031688900FF
:101B3000B0FBF1F86420B8FBF0F004012009642147
:101B400001FB1089A88900F4004040B1322000EB6D
:101B5000C900B0FBF1F000F00700044308E03220B8
:101B600000EB09106421B0FBF1F000F00F0004431A
:101B70002C8106B0BDE8F0874FF4165101600021BA
:101B80008180C18001810C214181002181817047C8
:101B900010B502460020108A4FF2FF0318400B8850
:101BA0004C8823438C882343CC88234318431082DA
:101BB00010BD0021018041808180C180704721B12A
:101BC000828942F40052828104E082894DF6FF73DB
:101BD0001A4082817047F0B5034600240026002594
:101BE000002040F66A17B94200D100BF1846C1F381
:101BF000421401F01F06012707FA06F5012C01D156
:101C00000C3004E0022C01D1103000E014301AB185
:101C100007682F43076002E00768AF430760F0BD25
:101C20001AB1838A0B43838202E0838A8B438382C7
:101C30007047028A4FF6F0731A400282028A0A4302
:101C40000282704782894FF2FF731A408281828933
:101C50000A438281704721B1828942F00202828167
:101C600004E082894FF6FD731A4082817047028A30
:101C70004FF6DF731A400282028A0A4302827047DB
:101C800021B1028A42F48042028204E0028A4BF6C9
:101C9000FF731A4002827047C1F3080282807047C6
:101CA00001468888C0F308007047818941F001012E
:101CB00081817047028BD2B20283028B42EA0122F9
:101CC00002837047028B02F47F420283028B0A4335
:101CD0000283704721B1828A42F02002828204E0AE
:101CE000828A4FF6DF731A408282704721B1828A5E
:101CF00042F01002828204E0828A4FF6EF731A40AB
:101D00008282704721B1828A42F00802828204E016
:101D1000828A4FF6F7731A408282704721B1828916
:101D200042F40042828103E08289C2F30E02828182
:101D3000704721B1828A42F40062828204E0828A82
:101D40004FF2FF731A4082827047828A4FF6FB730C
:101D50001A408282828A0A438282704721B1828A33
:101D600042F00202828204E0828A4FF6FD731A403A
:101D70008282704702460020B1F5007F00D100BF8B
:101D800013880B400BB1012000E00020704701F4E4
:101D90000072B2F5007F00D100BFCA4302807047D5
:101DA00070B50246002400230025002040F66A1684
:101DB000B14200D100BFC1F3421501F01F0301265B
:101DC00006FA03F3012D02D19689334006E0022D75
:101DD00002D1168A334001E0968A33400C12012664
:101DE00006FA04F41688344013B10CB1012000E067
:101DF000002070BD10B50022002340F66A14A142F5
:101E000000D100BF0A1201249440A3B2DC43048035
:101E100010BD000000380140004400400048004070
:101E2000004C00400050004010B50446CC488442AD
:101E300008D101210420FEF7BDFB00210420FEF79C
:101E4000B9FB46E0C748844208D101210820FEF7CB
:101E5000B1FB00210820FEF7ADFB3AE0C248844206
:101E600008D101211020FEF7A5FB00211020FEF76C
:101E7000A1FB2EE0BD48844208D101212020FEF7BD
:101E800099FB00212020FEF795FB22E0B848844210
:101E900008D101214020FEF78DFB00214020FEF7F4
:101EA00089FB16E0B348844208D101218020FEF767
:101EB00081FB00218020FEF77DFB0AE0AE488442D2
:101EC00007D101218015FEF775FB0021A015FEF753
:101ED00071FB10BD10B501210846FEF76BFB002118
:101EE0000120FEF767FB10BD2DE9F04102460025F9
:101EF0000026002000230024002791F803C00CF0E6
:101F00000F0591F803C00CF0100CBCF1000F03D0CA
:101F100091F802C04CEA050591F800C0BCF1000F31
:101F200031D0146800202BE04FF0010C0CFA00F3C4
:101F3000B1F800C00CEA03069E4220D183004FF0A6
:101F40000F0C0CFA03F7BC4305FA03FC4CEA04043B
:101F500091F803C0BCF1280F06D14FF0010C0CFA28
:101F600000FCC2F814C00AE091F803C0BCF1480FAD
:101F700005D14FF0010C0CFA00FCC2F810C0401C57
:101F80000828D1D31460B1F800C0BCF1FF0F34DDD4
:101F9000546800202EE000F1080C4FF0010808FA08
:101FA0000CF3B1F800C00CEA03069E4221D1830075
:101FB0004FF00F0C0CFA03F7BC4305FA03FC4CEA94
:101FC000040491F803C0BCF1280F05D100F1080CFE
:101FD00008FA0CF8C2F8148091F803C0BCF1480F5D
:101FE00007D100F1080C4FF0010808FA0CF8C2F80C
:101FF0001080401C0828CED35460BDE8F0814FF615
:10200000FF710180022181700421C1707047024676
:10201000002093680B400BB1012000E000207047C6
:102020000146886880B2704702460020D3680B40A2
:102030000BB1012000E0002070470146C86880B263
:10204000704701617047416170470AB1016100E06A
:1020500041617047C16070474FF480320A4382612A
:102060008161826182698269704702460020434B28
:1020700018684FF68073184040EA021008433F4B3F
:10208000186070473E49C8617047F0B50A460023A2
:1020900000240021002500F00046B6F1004F02D1D7
:1020A000364EF16901E0354E7168C0F3034583B2E5
:1020B00000F44016B6F5401F08D121F070612F4E94
:1020C000766826F070662D4F7E6012E000F4801670
:1020D000B6F5801F06D1032606FA05F4A14341F0A8
:1020E000706106E0460D360103FA06F6B14341F091
:1020F000706122B1460D360103FA06F6314300F055
:102100000046B6F1004F02D11C4EF16101E01B4EBA
:102110007160F0BD30B500228B071C0F0F2303FA4E
:1021200004F2164B08338C1053F824309343134CAD
:1021300008348D1044F8253023468C1053F8243091
:102140008C07240F00FA04F423430C4C08348D1040
:1021500044F8253030BD0A49DC3108607047000082
:1021600000080140000C0140001001400014014033
:1021700000180140001C0140002001400000014007
:1021800000002042002044490860091D0860091D24
:102190000860091D086041483F49143108607047D4
:1021A00000213D498279002A3AD00A461268036824
:1021B0009A430B461A600A1D126803689A430B1D66
:1021C0001A60027911440A6803681A430A60324AA5
:1021D0000832126803689A432F4B08331A601A1D9D
:1021E000126803689A432C4B0C331A604279102A08
:1021F0000ED11A1F126803681A43274B08331A605E
:102200001A1D126803681A43234B0C331A600DE041
:102210002149427911440A6803681A430A6005E0BB
:10222000027911440A6803689A430A6070470021E2
:10223000016001710C2141710021817170471649C3
:10224000103109680143144A103211607047014689
:102250000020114A143212680A400AB1012000E03D
:10226000002070470C491431086070470146002077
:102270000022094B1B6803EA0102074B14331B6859
:102280000B4013B10AB1012000E000207047024961
:10229000143108607047000000040140FFFF0F0088
:1022A00000F0B8F80A2000F079F800F055FB4FF480
:1022B000FA6000F073F8012000F046FA012000F007
:1022C0005AFA0121002000F076FA0121084600F0B8
:1022D00072FA4FF49671002000F0C4FA4FF4967130
:1022E000012000F0BFFA00BFFEE7000010B5002893
:1022F00007DA0A07140E4D4A00F00F031B1FD454CF
:1023000003E00A07130E4A4A135410BD10B5FDF737
:10231000C9FF4FF48030FDF7E5FFFEF722F80446D1
:10232000012C24D11020FEF7A3F90220FEF78CF92E
:102330000020FEF75CF80020FEF76BF8A002FEF725
:102340005FF84FF4E0112004FEF734F80120FEF7A7
:102350003DF800BF3920FDF7E8FF0028FAD0022041
:10236000FEF737F800BFFEF73DF80828FBD1012043
:10237000FEF73EF92F48FEF796F801210846FEF7D2
:10238000FFF801213C20FEF7FBF810BD704710B5A7
:102390004FF4A060FDF718FF10BD704701B5264946
:1023A0000098086000BF244800680028FBD108BDE1
:1023B0002148006820B120480068401E1E4908607E
:1023C000704710B50021481EFFF790FF194840687C
:1023D0004FF47A71B0FBF1F4601EB0F1807F01D34D
:1023E00001200FE0601E4FF0E02148610F214FF007
:1023F000FF30FFF77BFF00204FF0E02188610720CE
:102400000861002008B100BFFEE710BD10B5FFF75E
:10241000D8FF10BD10B5FFF779FFFFF7B7FFFFF743
:10242000B6FFFFF7BAFFFFF7F1FF10BD18ED00E0B0
:1024300000E400E0D4000020140000200CB50020CF
:10244000019000906C48006840F480306A49086050
:1024500000BF6948006800F4003000900198401CFB
:102460000190009818B90198B0F5A06FF1D16248B9
:10247000006800F4003010B10120009001E000205D
:1024800000900098012843D15C48006840F010009B
:102490005A4908600846006820F0030008600846B2
:1024A000006840F0020008605348406852494860A4
:1024B0000846406848600846406840F480604860CC
:1024C0000846406820F47C1048600846406840F4A4
:1024D000E81048600846006840F08070086000BF5F
:1024E0004548006800F000700028F9D04248406874
:1024F00020F00300404948600846406840F0020070
:10250000486000BF3C48406800F00C000828F9D142
:102510000CBD10B5FFF792FF10BD10B5364800682E
:1025200040F00100344908600846406834490840DA
:102530003149486008460068324908402E49086021
:102540000846006820F4802008600846406820F4AF
:10255000FE0048604FF41F008860FFF7DAFF4FF07D
:1025600000602949086010BD10B50021002000223C
:10257000214B5B6803F00C0121B1042906D0082926
:1025800028D107E0214B224C236027E01F4B204C31
:10259000236023E0184B5B6803F47010164B5B68F4
:1025A00003F48032022303EB904022B9194B4343DA
:1025B000174C23600DE0104B5B6803F4003323B12C
:1025C000144B4343124C236003E0104B4343104C25
:1025D000236003E00D4B0E4C236000BF00BF064B91
:1025E0005B68C3F303130C4CE15C094B1B68CB40E5
:1025F000074C236010BD0000001002400020024084
:102600000000FFF8FFFFF6FE08ED00E000127A0080
:102610001800002000093D001C000020704700BF8A
:10262000FEE700BFFEE700BFFEE700BFFEE7704722
:102630007047704710B53C480088401C3A490880F4
:102640003A480078401C39490870084600780A2842
:1026500003D10020087000F030FAFFF7A9FE10BD8A
:1026600010B540F227713248FFF79AFB002849D095
:102670000D203049C8700A2008712F480068401C9E
:102680002D49086008460068B0F5FA7F3AD100206D
:1026900000F09CF90446012000F098F9201A00B2DD
:1026A000264908800020244908602448B0F9000029
:1026B000002809DD2149098888B2010A1D4A1170E4
:1026C0005070002191700AE01C490988494288B283
:1026D000010A184A117050700021917000BF18480B
:1026E0000078052802D10020154908701148144AC5
:1026F0001278815C0E48FFF7CFFA11480078401C31
:102700000F49087010BD10B540F225510D48FFF774
:1027100047FB38B10B48FFF7C3FAC4B2204600F0BC
:102720003BFA00BF10BD000038000020360000203A
:10273000003801402C0000203C0000204200002016
:10274000400000200044004010B504464CB98021F0
:102750005548FFF778FC4FF400615348FFF773FCCE
:1027600008E080215048FFF76CFC4FF400614E48B0
:10277000FFF767FC10BD10B5044694B920214A4804
:10278000FFF75FFC4FF400714748FFF75AFC402108
:102790004548FFF758FC4FF480614348FFF753FC6E
:1027A00008E020214048FFF74EFC4FF400713E48FE
:1027B000FFF749FC10BD70B505460C4685B93CB124
:1027C00010213A48FFF73DFC01203949087017E015
:1027D00010213648FFF737FC0020354908700FE01C
:1027E0003CB120213148FFF72CFC01203149087011
:1027F00006E020212D48FFF726FC00202D49087017
:1028000070BD014611B92A48007870472948007800
:10281000FBE710B5044694B90020FFF7F2FF264904
:1028200008700846007808B9012000E0002022491D
:102830000870084601780020FFF7BDFF11E0012075
:10284000FFF7DFFF1C4908700846007808B901202F
:1028500000E0002018490870084601780120FFF7C1
:10286000AAFF10BD70B505460C46B4F57A7F02DDAF
:102870004FF47A7000E02046044660200F4908803B
:10288000012048800846C480002008814FF48070F1
:1028900088811DB90A48FEF7C6FA03E007490848CF
:1028A000FEF703FB70BD0000000C01400008014072
:1028B0004E0000204F00002050000020E8000020C3
:1028C0000004004000B587B001210220FDF765FE3D
:1028D0002320ADF810000020ADF812003748008822
:1028E000401E80B2ADF814000020ADF816008DF83F
:1028F000180004A93248FEF759FA6020ADF800002C
:102900000120ADF802002D480088ADF80600002037
:10291000ADF808004FF48070ADF80C006946284807
:10292000FEF781FA08212648FEF7CCFE69462448C6
:10293000FEF7BBFA08212248FEF7CDFE0121204810
:10294000FEF790FE01211E48FEF78CFD01211C4878
:10295000FEF794FD07B000BD08B500F011FA00F0D5
:10296000C1F900F052F83020ADF8000010208DF8C9
:10297000030003208DF8020069461248FFF7B4FAFD
:10298000C020ADF8000018208DF8030003208DF85A
:10299000020069460B48FFF7A7FAFFF793FF4FF4D1
:1029A0003F60ADF8000010208DF8030003208DF883
:1029B000020069460448FFF797FA08BD5C00002052
:1029C0000004004000080140000C014010B5014621
:1029D00049B9414A12884FF47A7392FBF3F403FB2E
:1029E000142290B208E03D4A12884FF47A7392FBA9
:1029F000F3F403FB142290B2B0F57A7F02DD4FF4BA
:102A00007A7200E00246104610BD1FB50F20ADF8E7
:102A10000C0004208DF80F0003208DF80E0003A990
:102A20002F48FFF761FA00210120FFF773FB022115
:102A30000120FFF76FFB012001908DF80A000020B4
:102A40008DF8080008208DF8090001A8FFF7A8FB01
:102A50000420019001A8FFF7A3FB06208DF80000D9
:102A600001208DF8010002208DF8020001208DF870
:102A700003006846FDF7ADFB08208DF800006846AE
:102A8000FDF7A7FB1FBD10B50120FFF7EBFB0120F1
:102A9000FFF7FDFB13480088401C1249088010BD59
:102AA00010B50420FFF7DEFB0420FFF7F0FB0E4813
:102AB0000088401C0C49088010BD0A48008806495F
:102AC00008800948008805490880002005490880D9
:102AD00005490880704700006C0000206E0000204F
:102AE000000C0140680000206A0000202DE9F84F2A
:102AF00000276B4D6E0C6B4881886B48B0F9002045
:102B00000088401C00B2684B1880684820F81210FA
:102B10001846B0F90000052190FBF1F201FB12000C
:102B20001946088000241BE0604931F9140000F0C8
:102B3000FBFA8046394600F0B7F907465B4830F9A2
:102B40001400A84202DD594830F91450574830F9B2
:102B50001400B04202DA554830F91460601C04B227
:102B6000052CE1DB304600F0DFFA0090284600F04B
:102B7000DBFA8346394600F0BBFB8246009900F041
:102B8000C1FB81464A4900F0E7FA80464FF08E418A
:102B900000F0ECF9BDE8F88F10B50446454801781F
:102BA0000078401C434A107043484454007855282C
:102BB00003D000201146087010BD3E4800780B2855
:102BC00000DAF9E73C48407850380A285AD2DFE862
:102BD00000F0050D151D2931394149513748364955
:102BE000891C0A680260496841604CE034483249F7
:102BF000891C0A6802604968416044E031482E49F6
:102C0000891C0A680260496841603CE025482A49FD
:102C1000891C0A68026049684160FFF767FF2A491A
:102C2000086030E029482449891C0A680260496824
:102C3000416028E026482049891C0A6802604968EA
:102C4000416020E023481C49891C0A6802604968E9
:102C5000416018E020481849891C0A6802604968E8
:102C6000416010E01D481449891C0A6802604968E7
:102C7000416008E01A481049891C0A6802604968E6
:102C8000416000E000BF00BF00200A49087000BF9B
:102C900092E710B50C48006800F02AFA00B210BDA7
:102CA0000080FFFF92000020D0000020F8000020EC
:102CB00000007042D2000020020100207A000020B3
:102CC000820000208A000020CC0000209A00002012
:102CD000A2000020AC000020B4000020BC000020B6
:102CE000C400002000B587B001218803FDF748FC2F
:102CF00025208DF8040002208DF805008DF80600CF
:102D000001208DF8070001A8FDF763FA4FF4007069
:102D1000ADF8180018208DF81B0003208DF81A005C
:102D200006A94048FFF7E0F84FF48060ADF81800BE
:102D300004208DF81B0006A93A48FFF7D5F84FF498
:102D4000E13002900020ADF80C00ADF80E00ADF8B7
:102D50001000ADF814000C20ADF8120002A93248A2
:102D6000FEF7A1FE002240F225512F48FEF733FF67
:102D7000002240F227712C48FEF72DFF07B000BD5E
:102D800000B587B001214804FDF707FC26208DF827
:102D9000040002208DF8050003208DF806000120B4
:102DA0008DF8070001A8FDF714FA0420ADF818000B
:102DB00018208DF81B0003208DF81A0006A9194869
:102DC000FFF792F80820ADF8180004208DF81B00DA
:102DD00006A91448FFF788F84FF4E130029000206C
:102DE000ADF80C00ADF80E00ADF81000ADF8140011
:102DF0000C20ADF8120002A90C48FEF754FE012287
:102E000040F225510948FEF7E6FE002240F2277104
:102E10000648FEF7E0FE01210448FEF7D0FE07B0A9
:102E200000BD00000008014000380140004400409F
:102E3000704770477047000000487047100100203D
:102E40007546FFF7F9FFAE4605006946534620F088
:102E50000700854618B020B5FDF7A4F9BDE820406D
:102E60004FF000064FF000074FF000084FF0000B46
:102E700021F00701AC46ACE8C009ACE8C009ACE8F9
:102E8000C009ACE8C0098D4670470446AFF3008026
:102E90002046FDF772F9000001491820ABBEFEE79D
:102EA000260002007047000090EA010F48BF81F041
:102EB000004100F12E82421A3CBF801A89184FEA65
:102EC000D0524FF07F4C1CEA410FA2EBD15318BFF8
:102ED0009CEA026F00F03B804FF0004C4CEA00206F
:102EE0004CEA012121FA03FC10EB0C0C1ED202F17A
:102EF000FF325FEA1C2040EBC25038BF70471CF025
:102F00007F0F4FEA400C18BFBCF17F4F38BF7047AE
:102F1000C3F12003994008BF20F00100BCF17F4FAE
:102F200038BF7047A0F1C04000F0DDB94FEA3C0067
:102F3000000A40EBC25028BF1CF0FF0F4FEA400CC4
:102F4000E6D018BFBCF17F4F38BF7047EAE79CEA74
:102F5000026F05D010EA5C0F08BF00F00040704718
:102F600010B500F07AF900BF64FBBE3E4FF47F0C51
:102F70001CEAD0121EBF1CEAD11392EA0C0F93EA8E
:102F80000C0F00F0858090EA010F48BF42F4807278
:102F900040F4000C41F400002CF07F4120F07F4011
:102FA00000B58142A2EB03020FF2081CACEB504EBD
:102FB000C0F100009EF800E04FEA4E0E00FB0EFC50
:102FC00038BF49004FEA2C1C02F5FA020CFB0EF345
:102FD0004FEACE1E4FEA112C4FEAC1210EEB635E81
:102FE00042EB22420EFB0CFC4FEA1C5300FB031188
:102FF0004FEA112C4FEA01310EFB0CFC4FEADC4C7E
:1030000000FB0C11C14228BF09184CEB03335DF8DB
:1030100004EB10EB410143EBC250B2F57C0F38BF1B
:10302000704729D512F0F00F1CBF00F1C04000F02E
:1030300000407047008182838485868788898B8CD5
:103040008D8E8F919293959697999A9C9D9FA0A211
:10305000A3A5A7A8AAACAEB0B2B3B5B7B9BCBEC061
:10306000C2C5C7C9CCCED1D4D7D9DCDFE2E6E9EC02
:10307000F0F3F7FAFE0000004FEA400C0CF1807C00
:10308000BCF17E4F28BF7047B0F1C04000F02BB9B3
:1030900090EA010F0CEAD11348BF42F480726245F6
:1030A00038BF634507D213F47F0F16D080EA0100C2
:1030B00000F00040704710B500F0CFF8097EFC3EEC
:1030C00000F005B880EA010000F00040704780EA97
:1030D000010000F0004000F006B912F47F0F04BFB9
:1030E0000248704780EA010000F0FDB80000C07F90
:1030F00041000B0ED3F19E0208D950F400034FEAB1
:10310000032323FA02F048BF4042704710B500F095
:10311000A4F800BF49922480002070476FF000425D
:1031200082EA20007047000010F0004148BF404292
:10313000B0FA80F310FA03F2C3F19D030BD051EA09
:10314000C35101EB1220530638BF704700F1010054
:1031500008BF20F0010070474FF47F0C1CEAD0122A
:103160001EBF1CEAD11392EA0C0F93EA0C0F00F079
:10317000478090EA010F48BF42F480724FF0004C44
:103180004CEA00204CEA012102EB0302A0FB0113F0
:10319000A2F50002002918BF43F001035B0028BF1D
:1031A0004FEA330342EB22425FEA132C4CEBC2504E
:1031B0002EBFBCEB436FB2F57C0F70474FEA036C38
:1031C000BCF1004F08BF20F00100B2F57C0F38BF02
:1031D00070470BD582F0FF0212F5803FC8BF7047E1
:1031E00000F1C040D8BF00F00040704700F5000C6F
:1031F0005FEA4C0C48BF7047B0F1C04000F073B8B4
:1032000090EA010F0CEAD11348BF42F48072624584
:1032100038BF634504D280EA010000F000407047E7
:1032200010B500F01AF800BF8900013E00F007B8A1
:1032300000F009B85FEA410C5FEA1C6C08D080EA34
:10324000010000F050B85FEA400C5FEA1C6CF6D158
:103250004FF00040A0F5800070470EF1020E2EF0F6
:10326000030E5EF8044B244204D44FEA4102B2F14B
:103270007F4F11D84FEA4003B3F17F4F0CD80ED1E6
:103280004FEAD07CB2F17F4F0CEB4C0C0CF1020CEE
:1032900008BF4CEBD17C04E04FF0080C01E04FEA92
:1032A000D17C0CEB4C0324FA03F404F00704B4F1D2
:1032B000040C06D20EEB840CBDE810404CF0010C5F
:1032C0006047DFE80CF0070802024FF00040A0F56D
:1032D000800010BD0846420018BFD2F1807288BF3E
:1032E00000F0004010BDFF2141EAD050C0057047FA
:1032F00080F0004090EA010F7FF5DDAD81F00041E4
:1033000000F007B890EA010F48BF81F000413FF597
:10331000D2AD421A04D882F00042A0EB0200114460
:103320004FEAD0524FF07F4C1CEA410FA2EBD15331
:1033300018BF9CEA026F4AD04FF0004C4CEA0020C4
:103340004CEA012121FA03FCB0EB0C0C0FD412F073
:10335000FE0F36D05FEA4C001DD5001240EBC25084
:1033600038BF70471CF03F0F18BF70470BE0A2F149
:1033700001025FEA1C2040EBC25038BF70471CF0CE
:103380007F0F18BF7047C3F12003994014BF401E40
:1033900020F00100704780084FEA122308BF7047F1
:1033A000B0FA80FCA2EB0C02CCF1280C60FA0CF015
:1033B00093EA122F04BF00EBC25070474FEAC3706C
:1033C0007047130A5FEADC1008BF7047F6E79CEA13
:1033D000026F04D010EA5C0F08BF0020704710B5E0
:1033E000FFF73BFF40DFF63E81F0004070470000F2
:1033F0001034000800000020D4000000280100085C
:10340000E4340008D40000209C06000044010008B9
:10341000000000000102030401020304060708097A
:10342000020406080000000000A24A040000000098
:103430000000000001020304060708090000000064
:10344000000000000000000000000000000000007C
:10345000000000000000000000000000000000006C
:10346000000000000000000000000000E803000071
:10347000000000000000000000000000000000004C
:10348000000000000000000000000000000000003C
:10349000000000000000000000000000000000002C
:1034A000000000000000000000000000000000001C
:1034B000000000000000000000000000000000000C
:1034C00000000000000000000000000000000000FC
:1034D00000000000000000000000000000000000EC
:0434E00000000000E8
:04000005080000ED02
:00000001FF
