:020000040800F2
:1000000080070020CD010008C90B00088509000801
:10001000550A00082D030008471D000800000000D5
:100020000000000000000000000000005D13000858
:100030000906000800000000F110000889170008F8
:10004000E7010008E7010008E7010008E7010008F0
:10005000E7010008E70100080D0600082506000872
:100060003D060008E7010008E7010008E701000875
:10007000E7010008E7010008E7010008E7010008C0
:10008000E7010008E7010008E7010008E7010008B0
:10009000E7010008E7010008E7010008550600082D
:1000A000E7010008E7010008E7010008E701000890
:1000B000E7010008E7010008E7010008E701000880
:1000C000E7010008E7010008E7010008E701000870
:1000D000E7010008BD1A0008E91A00080D1B000816
:1000E000E7010008E7010008E7010008E701000850
:1000F000E7010008E7010008E7010008E701000840
:10010000E7010008E7010008E7010008E70100082F
:10011000E7010008E7010008E7010008E70100081F
:10012000E7010008E7010008E7010008E70100080F
:1001300000F002F800F03AF80AA090E8000C8244BF
:100140008344AAF10107DA4501D100F02FF8AFF29C
:10015000090EBAE80F0013F0010F18BFFB1A43F0A5
:1001600001031847CC4E0000EC4E0000103A24BFAB
:1001700078C878C1FAD8520724BF30C830C144BF0C
:1001800004680C607047000000230024002500264E
:10019000103A28BF78C1FBD8520728BF30C148BFEA
:1001A0000B6070471FB51FBD10B510BD00F044F8BF
:1001B0001146FFF7F7FF02F00BFC00F062F803B402
:1001C000FFF7F2FF03BC00F065F800000948804724
:1001D00009480047FEE7FEE7FEE7FEE7FEE7FEE729
:1001E000FEE7FEE7FEE7FEE704480549054A064B41
:1001F0007047000005180008310100088001002048
:100200008007002080030020800300207047704793
:10021000704710B500F008F8006810BD10B504462E
:1002200000F002F8046010BD004870472001002073
:1002300000487047200100207546FFF7F9FFAE46E1
:1002400005006946534620F00700854618B020B5E2
:10025000FFF7CAFFBDE820404FF000064FF000074F
:100260004FF000084FF0000B21F00701AC46ACE85E
:10027000C009ACE8C009ACE8C009ACE8C0098D46CB
:10028000704710B50446AFF300802046BDE810402B
:10029000FFF795BF01491820ABBEFEE7260002001C
:1002A0007047000008B54FF48060ADF800000420EE
:1002B0008DF803006946024800F0A8FA08BD000066
:1002C0000008014008B525208DF8000002208DF8B7
:1002D000010000208DF8020001208DF8030068461F
:1002E00000F07AFC08BD00001FB54FF416500090D6
:1002F0000020ADF80400ADF80600ADF80800ADF838
:100300000C000420ADF80A006946074801F0A6FC7D
:10031000012240F22551044801F07BFC01210248F2
:1003200001F05EFC1FBD00000038014000BFFEE789
:100330002DE9F04F8DB000200C900B900A900990A1
:10034000002681460024A7488188A74802780078C3
:10035000401CA54B1870A54820F8121018460078CC
:10036000042802D10120A24908709F490878C117CA
:1003700000EB91718910A0EB81019B4A11709C48A0
:10038000007810B90DB0BDE8F08F002443E0974924
:1003900031F9140004F0F0FA059004F021F9074651
:1003A000944A954B03F00CFE0022944BCDE90601D4
:1003B00003F0AEFB824603F0BDFA0A900A9804F0FF
:1003C0000FF9CDE9040103F03FFACDE906010C98DD
:1003D00004F006F98246DDE9062303F0DDFA07465C
:1003E00003F0A8FA0C900A9804F0FAF8CDE9040199
:1003F00002F012FA82468B460B9804F0F1F852464E
:100400005B46CDE9060103F0C7FA074603F092FA0E
:100410000B90601CC4B2042CB9DB4FF081410B98E7
:1004200004F078F9059004F0DBF882468B464FF033
:1004300081410C9804F06EF9059004F0D1F8524611
:100440005B46CDE9060102F027F9074603F072FA90
:10045000099000242CE0654931F9140004F08CFA6D
:10046000059004F0BDF88246624A634B03F0A8FD94
:1004700007460022614B03F04BFBCDE9060103F078
:1004800059FA0A90DDE9091004F0C0FB074600F0B4
:10049000F9FB05463146284604F086FB00D22E467D
:1004A0004946284604F080FA00D2A946601CC4B22E
:1004B000042CD0DB4846099904F0BEF8039004F000
:1004C0008FF8CDE9040103F0BFF982468B460C9802
:1004D00004F086F852465B46CDE9060103F096FF2C
:1004E000074603F027FA0C904846099904F0A4F84F
:1004F000039004F075F8074602F08EF9CDE9060185
:100500000B9804F06DF8CDE90401DDE9062303F052
:100510007DFF824603F00EFA0B903046099904F0F5
:100520008BF8039004F05CF8824603F08DF9CDE976
:1005300004010C9804F054F80746DDE9042303F0A5
:1005400065FFCDE9060103F0F5F90C9030460999F5
:1005500004F072F8039004F043F8CDE9040102F0CE
:100560005BF9CDE906010B9804F03AF80746DDE99E
:10057000062303F04BFF824603F0DCF90B90204882
:1005800001684FF07E5004F043FA074604F028F863
:10059000CDE904014FF080410B9804F0BBF80190C5
:1005A00004F01EF882468B464FF080410C9804F010
:1005B000B1F8019004F014F8074652465B4602F089
:1005C0006BF8CDE90201DDE9042303F0E5F9CDE99B
:1005D000060103F0AFF9089000F054FB09490860E8
:1005E00000BFCFE664000020A5000020A800002086
:1005F000A60000204AD8124DFB2109400000E0402F
:10060000A00000209C0000207047000010B50448A6
:100610000088401C02490880012000F027F810BD26
:100620003600002010B504480088401C02490880AC
:10063000022000F01BF810BD3600002010B5044861
:100640000088401C02490880042000F00FF810BD0B
:100650003400002010B504480088401C024908807E
:10066000802000F003F810BD34000020014908602C
:100670007047000014040140002123498279002AB8
:100680003AD00A46126803689A430B461A600A1D5C
:10069000126803689A430B1D1A60027911440A68B4
:1006A00003681A430A60184A0832126803689A43BA
:1006B000154B08331A601A1D126803689A43124BCF
:1006C0000C331A604279102A0ED11A1F126803687F
:1006D0001A430D4B08331A601A1D126803681A4337
:1006E000094B0C331A600DE00749427911440A683E
:1006F00003681A430A6005E0027911440A68036836
:100700009A430A6070470000000401401CB50420B1
:10071000FFF7ACFF8020FFF7A9FF0220FFF7A6FF3D
:100720000120FFF7A3FF0221012000F04FF807216D
:10073000012000F04BF80121084600F047F80021A5
:10074000012000F043F88720009001208DF806007A
:1007500000208DF8040010208DF805006846FFF792
:100760008BFF1CBD08B58720ADF8000004208DF874
:10077000030003208DF802006946024800F046F8A5
:1007800008BD0000000C014008B508208DF80000ED
:1007900003208DF801008DF8020001208DF8030080
:1007A000684600F019FA17208DF80000684600F03E
:1007B00013FA07208DF80000684600F00DFA0620B5
:1007C0008DF80000684600F007FA08BD30B5002239
:1007D0008B071C0F0F2303FA04F20B4B8C1053F8FA
:1007E00024309343084C8D1044F8253023468C1058
:1007F00053F824308C07240F00FA04F42343024CEE
:100800008D1044F8253030BD080001402DE9F0413D
:10081000024600250026002000230024002791F82E
:1008200003C00CF00F0591F803C00CF0100CBCF1E4
:10083000000F03D091F802C04CEA050591F800C002
:10084000BCF1000F31D0146800202BE04FF0010CF8
:100850000CFA00F3B1F800C00CEA03069E4220D166
:1008600083004FF00F0C0CFA03F7BC4305FA03FCAE
:100870004CEA040491F803C0BCF1280F06D14FF0F4
:10088000010C0CFA00FCC2F814C00AE091F803C095
:10089000BCF1480F05D14FF0010C0CFA00FCC2F876
:1008A00010C0401C0828D1D31460B1F800C0BCF1BE
:1008B000FF0F34DD546800202EE000F1080C4FF0EB
:1008C000010808FA0CF3B1F800C00CEA03069E42D6
:1008D00021D183004FF00F0C0CFA03F7BC4305FA4B
:1008E00003FC4CEA040491F803C0BCF1280F05D1C5
:1008F00000F1080C08FA0CF8C2F8148091F803C053
:10090000BCF1480F07D100F1080C4FF0010808FABC
:100910000CF8C2F81080401C0828CED35460BDE803
:10092000F081416170470161704700000148007823
:1009300070470000E3000020014800787047000085
:10094000E2000020024B0ECB80E80E007047000052
:10095000F80000200148007870470000E400002003
:10096000014890F9000070473200002001480068FB
:1009700070470000440000200148006870470000F4
:100980004800002000BFFEE708B50820ADF80000D1
:1009900004208DF8030069460148FFF737FF08BDC2
:1009A0000008014008B526208DF8000002208DF8CF
:1009B000010000208DF8020001208DF80300684638
:1009C00000F00AF908BD00001FB54FF4E1300090B7
:1009D0000020ADF80400ADF80600ADF80800ADF851
:1009E0000C000420ADF80A006946074801F036F90A
:1009F000012240F22551044801F00BF9012102487F
:100A000001F0EEF81FBD00000044004010B500F0FA
:100A1000FBFB00F0DAF800F071F900F091F9FFF754
:100A2000B3FEFFF79FFEFFF771FEFFF74BFCFFF7EA
:100A300039FCFFF759FCFFF7B5FFFFF7A5FFFFF7FC
:100A4000C3FF01F0A1F901F081F901F0AFF900F065
:100A5000AFFE10BD00BFFEE710B5044644B920212B
:100A60000C48FFF760FF02210A48FFF75CFF10E027
:100A7000012C08D110210748FFF755FF0121054837
:100A8000FFF751FF05E00020FFF7E6FF0120FFF729
:100A9000E3FF10BD000801407FB505460C46002C61
:100AA00001DA002000E020460446B4F5FA6F02DDCA
:100AB0004FF4FA6000E0204604466020ADF80000E4
:100AC0000120ADF80200A0B2ADF806000020ADF89C
:100AD000080035B90E490C8069460E4800F03CFF0D
:100AE00014E0012D06D10C490C806946094800F03C
:100AF000DDFE0BE006490C8007490C80694605487D
:100B000000F0D4FE6946034800F026FF7FBD0000D8
:100B10002E000020000400403000002070B5054683
:100B20000C4695B944B120211B48FFF7FCFE022179
:100B30001948FFF7F6FE2DE020211748FFF7F1FED8
:100B400002211548FFF7EFFE24E0012D12D144B138
:100B500010211148FFF7E7FE01210F48FFF7E1FEE2
:100B600018E010210C48FFF7DCFE01210A48FFF7CE
:100B7000DAFE0FE01CB101200849087002E0FF20F6
:100B80000649087021460020FFF7C8FF21460120D2
:100B9000FFF7C4FF70BD00000008014032000020D4
:100BA00010B504460020074908702146FFF7B6FF3C
:100BB0000CB9012000E0002001460120FFF7AEFF44
:100BC00010BD000032000020704710B54FF4A06047
:100BD00000F03AF810BD000070B5002100230F228C
:100BE000C47804B3154C246804F4E064C4F5E064EC
:100BF000210AC1F10403CA40447804FA03F184785D
:100C00001440214309010E4C0678A155047804F0E4
:100C10001F050124AC4005786D11AD0005F1E025FC
:100C2000C5F8004109E0047804F01F050124AC4038
:100C3000044D0678761145F8264070BD0CED00E0B5
:100C400000E400E080E100E002490143024A116053
:100C5000704700000000FA050CED00E010B5002818
:100C600007DA0A07140E054A00F00F031B1FD454BD
:100C700003E00A07130E024A135410BD18ED00E0FA
:100C800000E400E02DE9F04104460BE0204603F0CB
:100C9000A7FC0546144A154B02F07EFE074602F0FB
:100CA00049FE0446204603F09BFC05460E4A104BC5
:100CB00003F04AF9EAD30BE0204603F091FC054625
:100CC000094A0C4B02F068FE074602F033FE044668
:100CD000204603F085FC0546034A074B03F06EFAF5
:100CE000EAD32046BDE8F0814AD8124DFB211940D5
:100CF000FB2109C0FB2119C0FB21094008B53320A5
:100D0000ADF8000010208DF8030003208DF80200DC
:100D100069460A48FFF77AFD33210848FFF703FECA
:100D2000C020ADF8000018208DF8030003208DF8D6
:100D3000020069460148FFF769FD08BD000801404F
:100D400000B587B02320ADF810000020ADF81200E8
:100D500040F2CF70ADF814000020ADF8160004A9E1
:100D6000134800F059FE6020ADF800000120ADF8F6
:100D700002000020ADF80600ADF8080069460C48F6
:100D800000F094FD08210A4800F0DCFD694608489F
:100D900000F0E2FD0821064800F030FE0121044881
:100DA00000F06CFD0121024800F074FD07B000BDA9
:100DB0000004004013490A780978491C114B197046
:100DC0001149885409787D2902D000211A461170F2
:100DD0000C490978042914D10B49C9787C290DD113
:100DE00009494978094A117007498978084A1170F8
:100DF0000121084A11700021074A11700021014A9F
:100E000011707047E1000020E5000020E3000020A1
:100E1000E4000020E2000020E000002010B50446BD
:100E2000274801780078401C254A10702548445412
:100E300000787B2802D000201146087020480078F6
:100E40000E283CD11F48407B7A2835D11D48807838
:100E50001C49497840EA01201B490880194800795B
:100E60001849C97840EA0120184908801548807956
:100E70001449497940EA0120134948801148007A11
:100E80001049C97940EA0120104948800D48807A0C
:100E90000C49497A40EA01200B4988800948007BC7
:100EA0000849C97A40EA012008498880064800F0CC
:100EB000A9FB00200649087000200149087010BDF8
:100EC000E000002011010020D4000020DA00002002
:100ED000E100002010B504463C4801780078401C31
:100EE0003A4A10703A4844540078552803D00020FC
:100EF0001146087010BD354800780B2800DAF9E774
:100F00003348407850380A2858D2DFE800F0050D01
:100F1000151D272F373F474F2E482D49891C0A683A
:100F20000260496841604AE02B482949891C0A68E7
:100F300002604968416042E028482549891C0A68E6
:100F40000260496841603AE025482149891C0A68E5
:100F5000026049684160FFF7EBF930E021481C4925
:100F6000891C0A6802604968416028E01E481849E7
:100F7000891C0A6802604968416020E01B481449E6
:100F8000891C0A6802604968416018E018481049E5
:100F9000891C0A6802604968416010E015480C49E4
:100FA000891C0A6802604968416008E012480849E3
:100FB000891C0A6802604968416000E000BF00BF08
:100FC00000200249087000BF94E70000B000002034
:100FD000EC0000204C000020540000205C000020A9
:100FE000640000206C000020740000207C000020C1
:100FF000840000208C000020940000202DE9F047A0
:101000008246344801780078401C324A10703248D9
:1010100000F801A000787F2802D000201146087057
:101020002C4800780D2852D12B48007B7E284BD1CC
:10103000294880782849497840EA012000B22749A8
:101040000880254800792449C97840EA012000B287
:1010500022494880204880791F49497940EA012087
:1010600000B21E4988801C48007A1B49C97940EAB1
:10107000012000B21949C8801749897A164A527A64
:1010800041EA022003F078FC14498860886803F084
:10109000A7FA0646124A134B02F092FF04460022BA
:1010A000114B02F035FD804602F044FC0B4988608C
:1010B0000948C07A10B100200C4908700020054989
:1010C00008700120BDE8F087002002490870002068
:1010D000F8E70000D300002004010020F800002001
:1010E0004AD8124DFB21094000806640BC00002018
:1010F0007047000029B1064AD2690243044BDA6105
:1011000004E0034AD2698243014BDA617047000070
:101110000010024029B1064A92690243044B9A61C9
:1011200004E0034A92698243014B9A6170470000D0
:101130000010024030B500210022002400232D4D74
:101140006D6805F00C0121B1042905D0082923D1CF
:1011500005E0294D056022E0274D05601FE0254D83
:101160006D6805F47012234D6D6805F48034022516
:1011700005EB92421CB9214D554305600BE01D4D16
:101180006D6805F400351DB11C4D5543056002E046
:10119000194D5543056002E0174D056000BF00BFC3
:1011A000144D6D6805F0F0010909154D6B5C05687B
:1011B000DD4045600F4D6D6805F4E061090A104D92
:1011C0006B5C4568DD4085600A4D6D6805F46051D3
:1011D000C90A0B4D6B5C4568DD40C560054D6D6807
:1011E00005F44041890B074D6B5CC568B5FBF3F511
:1011F000056130BD0010024000127A0000093D0078
:10120000000000201000002010B501210448FFF765
:1012100071FF012144F20D00FFF77CFF10BD0000BB
:10122000020006002DE9F04F89B082468B46454901
:101230000988454A1288881802F05BFE8046002221
:10124000424B02F0BDFE06460022414B02F060FC1C
:1012500000224FF08043CDE9060102F059FC04461C
:1012600002F068FB089001F0ADFB019003F0B8F9C3
:10127000804601F0D1FACDE90401FFF771FB01903E
:1012800003F07AFB8146089903F0C2FB804603F025
:10129000A7F9CDE90201DDE9042302F091FE06463B
:1012A0000F462C48006803F09BF932463B46CDE9D7
:1012B000060102F071FB044602F03CFB2549086080
:1012C00001F080FB019003F08BF9CDE9020102F0FF
:1012D000BBFACDE90401FFF743FB019003F04CFB9F
:1012E0000290089903F094FB039003F079F9064605
:1012F000DDE9042302F064FE04460D46164800684A
:1013000003F06EF922462B46CDE9060102F044FBBC
:10131000804602F00FFB104908600E480068CAF8CA
:10132000000008460068CBF800000020094908606A
:1013300009490860034908800349088009B0BDE8ED
:10134000F08F000034000020360000200088984014
:101350000088C3404400002048000020704700007F
:101360002DE9F04F89B00020079084480088844917
:101370000880844800888449088000207F490880CC
:10138000804908807E4909887F4A1288881802F0BF
:10139000B0FD804600227D4B02F012FE0646002280
:1013A0007B4B02F0B5FB044600224FF0804302F075
:1013B000AFFB824602F0BEFA069001F003FB0190FB
:1013C00003F00EF9804601F027FACDE90401FFF79A
:1013D000C7FA019003F0D0FA8146069903F018FB92
:1013E000804603F0FDF8CDE90201DDE9042302F0B7
:1013F000E7FD04460D466748006803F0F1F806462D
:1014000022462B4602F0C8FA824602F093FA61495E
:10141000086001F0D7FA019003F0E2F8824602F08A
:1014200013FA80468946FFF79BFA019003F0A4FA6D
:101430008346069903F0ECFA824603F0D1F806469B
:1014400042464B4602F0BCFD04460D465248006839
:1014500003F0C6F822462B46CDE9020102F09CFAC1
:10146000CDE9040102F066FA4B4908604B48008858
:1014700000287DD04248008810B14348008830B928
:1014800047480088C01C00B24549088025E0444810
:10149000008810B33A48008808281EDD3A480088C2
:1014A00008281ADD3648008837490988084410386A
:1014B0000A2190FBF1F03A490988081A00B238492C
:1014C00008800846B0F90000002801DA002002E098
:1014D0003348B0F90000324908802B48008802F0F8
:1014E0001FFD82462F4A304B02F06AFD06460F462A
:1014F0002348008802F014FD804632463B4602F045
:1015000085FF044602F016FA07902849079803F071
:101510007FFA05462648B0F9000003F02DFA06468A
:10152000294603F089F8044603F0EAF900B220499D
:1015300008800846B0F9004004EBD470174A1288BE
:10154000174B1B881A44A2EB600001B20020FFF782
:10155000A3FA1748B0F9004004EBD4700F4A128880
:101560000F4B1B881A4402EB600001B2012000E01F
:1015700001E0FFF791FA09B0BDE8F08F34000020D8
:1015800038000020360000203A00002000889840F3
:101590000088C34044000020480000203C00002098
:1015A0003E0000202DB29DEFA7C6EF3F0000A040F7
:1015B0004000002070B5044600210F48006803F089
:1015C0006BF902D10D48007870BD0C4800780128F5
:1015D00002D10A480078F7E707480168204603F07F
:1015E00015FB0546FFF74EFB05490860012003493E
:1015F000087008460078E7E79C000020A40000205F
:10160000A000002002881212104B5A7002789A70C3
:101610000A881212DA700A781A71428812125A7104
:1016200082789A714A881212DA718A781A728288DC
:1016300012125A7202799A728A881212DA720A792E
:101640001A730122024B1A7070470000C500002077
:10165000BC00002010B500F001F810BD0CB5002052
:10166000019000903348006840F4803031490860B0
:1016700000BF3048006800F4003000900198401C22
:101680000190009818B90198B0F5A06FF1D12948E0
:10169000006800F4003010B10120009001E000204B
:1016A00000900098012843D12348006840F01000C2
:1016B000214908600846006820F0030008600846D9
:1016C000006840F0020008601A4840681949486004
:1016D0000846406848600846406840F480604860BA
:1016E0000846406820F47C1048600846406840F492
:1016F000E81048600846006840F08070086000BF4D
:101700000C48006800F000700028F9D009484068D3
:1017100020F00300074948600846406840F0020096
:10172000486000BF0348406800F00C000828F9D169
:101730000CBD00000010024000200240044909884E
:10174000814204D00021034A11800149088070477A
:101750003C0000203E00002000B50020FFF7EEFF17
:1017600000BD10B50346642B01DD642000E018467F
:1017700003464FF4FA605843642190FBF1F084B2C1
:101780002046FFF7DBFF10BD10B508480078401C6D
:1017900006490870084600781E2803D1002008700A
:1017A000FFF7DEFD00F05EF810BD00002B0000200A
:1017B00010B5134800684FF47A71B0FBF1F4B4F13E
:1017C000807F01D3012011E024F07F40401E4FF0C4
:1017D000E02148610F214FF0FF30FFF73FFA002072
:1017E0004FF0E021886107200861002008B100BFA8
:1017F000FEE70E214FF0FF30FFF730FA10BD00007A
:101800001400002010B51348006840F00100114991
:10181000086008464068104908400E49486008467C
:1018200000680E4908400B4908600846006820F42B
:10183000802008600846406820F4FE0048604FF4AD
:101840001F008860FFF706FF4FF000600449086042
:1018500010BD0000001002400000FFF8FFFFF6FE80
:1018600008ED00E00448008820B103480088401ECD
:1018700001490880704700002C00002021B1028837
:1018800042F08002028004E002884FF67F731A4023
:101890000280704721B1028842F00102028004E018
:1018A00002884FF6FE731A400280704770B500241C
:1018B00000220023058C4FF6FE7635400584028C0D
:1018C0008388048B4FF68F752C40B51E2C400D88F5
:1018D0002C43751E2A400D892A434D882A43144DF6
:1018E000A8420BD0134DA84208D0134DA84205D0F2
:1018F000124DA84202D0124DA84213D14FF6F775EF
:101900002A404D892A434FF6FB752A408D882A4389
:101910004FF6FF652B404FF6FF552B408D892B432B
:10192000CD892B4383800483CD888586028470BD56
:10193000002C0140003401400040014000440140BF
:10194000004801400A460021018B4FF6F773194009
:10195000114301837047000070B50024002200236A
:10196000058C4FF6EF7635400584028C8388048B16
:1019700048F6FF752C404FF6FF452C400D884FF67A
:10198000FF7606EA05252C434FF6DF752A400D89C0
:1019900006EA05152A434D8806EA05152A43154D22
:1019A000A84202D0144DA8421DD14FF67F752A409F
:1019B0004D894FF6FF7606EA05152A434FF6BF75A7
:1019C0002A408D8806EA05152A434FF6FF352B403D
:1019D0004FF2FF752B408D8906EA85052B43CD8993
:1019E00006EA85052B4383800483CD88058702841E
:1019F00070BD0000002C0140003401400A46002167
:101A0000018B4FF2FF7319404FF6FF7303EA022375
:101A10001943018370470000002202881D4B984241
:101A20000ED01D4B98420BD0B0F1804F08D01B4B0D
:101A3000984205D01A4B984202D01A4B984204D1D2
:101A40004FF68F731A404B881A43174B984207D0B2
:101A5000164B984204D04FF6FF431A40CB881A43E6
:101A600002808B8883850B8803850A4B98420BD0B4
:101A7000094B984208D00E4B984205D00D4B984226
:101A800002D00D4B984201D10B7A03860123838249
:101A900070470000002C0140003401400004004069
:101AA00000080040000C00400010004000140040FE
:101AB00000400140004401400048014010B540F2A0
:101AC0002551084800F098F850B1064800F032F966
:101AD000C4B22046FFF7A2F92046FFF76BF900BF1A
:101AE00010BD00000038014010B540F225510648F5
:101AF00000F082F830B1044800F01CF9C4B220466E
:101B0000FFF7E8F910BD00000044004070B540F256
:101B100025512D4800F070F8002854D02A4800F0D4
:101B200009F9C4B22046FFF769FA00284BD0002417
:101B300000F0C0FE054625492548FFF773FB244801
:101B4000006802F0DDFE000A224948702048006863
:101B500002F0D6FE1F4988701C48006802F0D0FED3
:101B6000000A1C49C8701948006802F0C9FE1949EA
:101B70000871281248718D710DE01648015D1248F8
:101B800000F0DDF800BF80210F4800F035F8002894
:101B9000F9D0601CC4B2082CEFDB0F48007888B184
:101BA00000240DE00D48015D074800F0C8F800BFB3
:101BB0008021054800F020F80028F9D0601CC4B24C
:101BC0000E2CEFDB00BF70BD00480040B8000020C5
:101BD000B4000020BD000020BC000020C500002093
:101BE00021B1828942F40052828104E082894DF65B
:101BF000FF731A408281704702460020B1F5007FD2
:101C000000D100BF13880B400BB1012000E0002081
:101C10007047F0B50346002400260025002040F65A
:101C20006A17B94200D100BF1846C1F3421401F04F
:101C30001F06012707FA06F5012C01D10C3004E03C
:101C4000022C01D1103000E014301AB107682F4384
:101C5000076002E00768AF430760F0BD2DE9F04779
:101C600086B005460E460024A24600BFA1460027C6
:101C7000B08900B100BF2F462C8A4CF6FF7004409B
:101C8000F08804432C82AC894EF6F3100440B088EF
:101C900031890843718908430443AC81AC8A4FF60B
:101CA000FF400440B0890443AC8201A8FFF742FA28
:101CB0001F48874202D1DDF810A001E0DDF80CA03A
:101CC000A88900F4004040B10AEBCA0000EB0A10FA
:101CD00031684900B0FBF1F807E00AEBCA0000EBFD
:101CE0000A1031688900B0FBF1F86420B8FBF0F00D
:101CF00004012009642101FB1089A88900F4004037
:101D000040B1322000EBC900B0FBF1F000F0070059
:101D1000044308E0322000EB09106421B0FBF1F02D
:101D200000F00F0004432C8106B0BDE8F0870000EE
:101D30000038014001468888C0F308007047C1F3AD
:101D400008028280704700BFFEE7000008B54FF42C
:101D50000060ADF8000004208DF8030069460948D2
:101D6000FEF754FD4FF48060ADF8000003208DF8BD
:101D7000020018208DF8030069460248FEF746FD70
:101D800008BD0000000C014008B527208DF80000B8
:101D900002208DF8010000208DF8020001208DF84E
:101DA00003006846FEF718FF08BD00001FB54FF49A
:101DB000165000900020ADF80400ADF80600ADF814
:101DC0000800ADF80C000C20ADF80A006946074881
:101DD000FFF744FF012240F225510448FFF719FFA5
:101DE00001210248FFF7FCFE1FBD00000048004033
:101DF000490050EAC12018BF04204A0D18BF40F026
:101E0000010040F2FF72B2EB515F08BF40F00200E8
:101E1000012808BF052070472DE9F74F144694B0FC
:101E20000021C4E902111599079121F00045C94923
:101E30008D4206DC1599C4E9000117B00020BDE809
:101E4000F08FC549DFF814A3A9423CDD0799C44EC1
:101E50000029C44FC44A1599534619DD02F0D6FA39
:101E6000554506D0C14AC24B02F0D0FAC4E9000180
:101E70000AE04FF0D352BE4B02F0C8FA32463B465E
:101E800002F0C4FAC4E9000117B00120BDE8F08FE8
:101E900001F082FD554506D0B44AB54B01F07CFDFA
:101EA000C4E900010AE04FF0D352B14B01F074FDD8
:101EB00032463B4601F070FDC4E9000117B04FF017
:101EC000FF30BDE8F08FAB49A942159978DB21F0CE
:101ED000004183468846A84AA84B02F071F80022C8
:101EE000A74B01F059FD01F0A7FF099002F001F89E
:101EF00006460F469C4A534602F062F843465A464D
:101F000002F092F980468A46984A994B3046394603
:101F100002F056F82A0D01250B924246534602F074
:101F200083F9032DC4E9000139D00B98C1F30A519C
:101F3000401A05EB45111139814230DA9148C34608
:101F4000784400EB0510CDF80CA00C90D0E90023EC
:101F50003046394602F034F802460B4604910690AA
:101F60005846039902F052FA80468A4602460B46CA
:101F70005846039902F04AFA049B069A02F046FA80
:101F800083460C9803913946D0E90223304602F08B
:101F900017F85A46039B02F039FA6D1CBDE7079803
:101FA0000028A2BF099817B0BDE8F08F616881F0E2
:101FB00000416160099817B04042BDE8F08FFFE72B
:101FC00084461598C1F31301C0F30A50A0F2F5300E
:101FD0004FEA601800F01F06C6F1200013900020A1
:101FE0000690079041F4801E05206D4676B1664A42
:101FF00008EB00017A4452F8213002EB8101B34032
:102000004A68139922FA01F1194305E05F4908EB88
:102010000002794451F82210A1FB0E27A1FB0C13FA
:102020001A449A4234BF0123002303EB070A05EB4D
:102030008003D3E901B70F448F4234BF012100214F
:1020400093448B4411B1934502D903E0934501D2E7
:10205000012100E00021C3E901B7514445F82010F7
:10206000011EA0F10100C1DC0298059F00F10050A3
:10207000800F12900298DDE90356800001F039FFCD
:10208000834628460D9101F04BFF6FF01D0202F0D0
:1020900064FECDE90E01304601F042FF6FF03D02D3
:1020A00002F05BFE80468A46384601F039FF6FF049
:1020B0005D0202F052FE074642465346119101F07E
:1020C0006BFCDDE90E2301F067FC5A460D9B01F025
:1020D00063FC00250E465A4628460D9B02F096F9F1
:1020E000DDE90E2302F092F94246534602F08EF9E2
:1020F0003A46119B02F098F8DFF898A0244A53461C
:1021000001F05EFF07468846234A244B31462846A5
:1021100001F056FF3A46434601F03EFC074688462A
:102120004FF0A84253463146284601F049FF3A464F
:10213000434601F031FC159A12F0004F04D0129A78
:1021400081F0004152421292C4E90001129817B086
:10215000BDE8F08FFB21E93F7CD90240FB21F93F2C
:102160007370032E8A19A33B000040543163621A36
:1021700061B4D03DFB21394183C8C96D305FE43F74
:102180000000E03FFC2F0000782F00005A2F0000D5
:10219000182D4454FB21F93D3326A611460B113C62
:1021A0002DE9FF4D21F0004807460C46B8F1795F54
:1021B00008DA01F041FE002801BF0020324904B0D6
:1021C000BDE8F08D3A4623461046194601F0F8FE68
:1021D000054602462D480E460B460621784400F07F
:1021E0005DF82A46334601F0EBFEDDE90223824624
:1021F0008B463846214601F0E3FE04460F46524620
:102200005B462846314601F0DBFE22463B4602F0A3
:10221000FDF807468A464FF0FF322846314602F065
:102220009CFD1B4A90450ADA3A46534602F0EEF806
:1022300004B00022BDE8F04D134B01F0F5BF154A84
:102240004245A8BFA8F500154FF00004B8BF124DD5
:1022500022462B4602F0DAF80646884622462B46EE
:102260000020094902F0D2F804460D463A4653468A
:102270003046414602F0CAF804B022462B46BDE87B
:10228000F04D01F0D1BF00000000F03F282D00000C
:102290003333D33F0000E93F0000D23F2DE9F04146
:1022A0004F1E00EBC7010446D1E9000115461E464A
:1022B00037F006020DD02A46334601F081FE7F1E1C
:1022C00004EBC703D3E9002301F066FB37F00602F5
:1022D000F1D1022F25D0042F13D0062F18BFBDE84F
:1022E000F0812A46334601F06BFED4E90A2301F05F
:1022F00053FB2A46334601F063FED4E9082301F07C
:102300004BFB2A46334601F05BFED4E9062301F07D
:1023100043FB2A46334601F053FED4E9042301F07F
:102320003BFB2A46334601F04BFED4E9022301F081
:1023300033FB2A46334601F043FED4E90023BDE8CF
:10234000F04101F029BB00002DE9FF4D054621F0C9
:10235000004084B00C46B0F1795F0BDA2846FFF7F5
:1023600047FD042808BF00F07FF8284608B0214642
:10237000BDE8F08D2A460B46104601F021FE0646C8
:102380000F462A46234601F01BFE804626488A4611
:1023900032463B4605217844FFF780FF834610987C
:1023A000029160B3214A224B4046514601F008FE9B
:1023B000CDE900015A4640465146029B01F000FE1D
:1023C00082468846DDE906014FF0FF3202F0C5FC87
:1023D0005246434602F01AF832463B4601F0F0FD01
:1023E000DDE9062302F012F8DDE9002302F00EF821
:1023F00008B02A462346BDE8F04D01F015BF0B4654
:102400005A463046394601F0DBFD084A084B01F0D8
:10241000C3FA4246534601F0D3FD08B02A4623468C
:10242000BDE8F04D01F0B8BA6E2C00004955555585
:102430005555C5BF002213461046014901F068BB3F
:102440000000F03F012202F088BC01F0A5BA002292
:1024500013461046114601F05BBB40F201320020EA
:102460004FF0E04102F079BC024A0020110702F06F
:1024700074BC000001FDFFFF2DE9F84F04460D4636
:1024800021F0004000917349814211DC7249884279
:1024900001DC06D12CB120462946BDE8F84FFFF7F4
:1024A000D1BF6E48002DCCBF6D496E49BDE8F88F95
:1024B0006D49814211DD6D498142D8BF4FF0FF3631
:1024C0006DDD20462946FFF793FC042808BFFFF77F
:1024D000CBFF20462946BDE8F88F6549654F25F0BA
:1024E0000045814233DD6449814219DD00263246D0
:1024F0004FF080432046294601F04EFA80468A4636
:1025000001222046294602F028FC00223B4601F029
:102510007DFF4246534601F0FBFA04460D463EE07D
:1025200001260022BA463B462046294601F034FAED
:1025300080460F46002253462046294601F066FF9A
:1025400042463B4601F0E4FA04460D4627E04B497B
:1025500081421BDDDFF828A10226002253462046D7
:10256000294601F02DFD00223B4601F015FA804678
:102570000F46002253462046294601F047FF4246B7
:102580003B4601F0C5FA04460D4608E00326224604
:102590002B4600203B4901F0BBFA04460D4622467B
:1025A0002B461046194601F00BFD8B46824602462B
:1025B0000B4601F005FD07460246334888460B46A8
:1025C00006217844FFF76AFE52465B4601F0F8FCAC
:1025D00082462E488B463A46434605217844FFF70B
:1025E0005DFE3A46434601F0EBFC02460B46002EE8
:1025F000504659460CDA01F0CFF922462B4601F03D
:10260000DFFC01B022462B46BDE8F04F01F00CBEC6
:1026100001F0C2F922462B4601F0D2FC1C4A7A4452
:1026200002EBC603D3E9002301F0F0FE22462B465D
:1026300001F0ECFE174A7A4402EBC603D3E900230B
:1026400001F0F2FD009A002AB8BF81F00041BDE818
:10265000F88F0000000010440000F07F182D445453
:10266000FB21F93FFB21F9BF0000DC3F0000203EC9
:102670000000F33F0000F03F0000E63F0080034011
:102680000000F83F0000F0BF12290000D028000031
:102690006E280000362800002DE9F04D9446CCF15C
:1026A000000423F000464CEA0404524F46EAD47476
:1026B0009A46884621F00042BC4206D8454240EA8C
:1026C000050442EAD474BC4204D9BDE8F04D624628
:1026D000FFF7BBBEAAF14055A5F17F6555EA0C0492
:1026E0000BD0022404EAAA74434DDFF810E144EA57
:1026F000D87452EA000B04D00CE0BDE8F04DFFF7AF
:10270000BBBE002C14BF012CBDE8F08D022C30D0D4
:10271000032C32D056EA0C0B0AD0BE4220D1BA426A
:1027200009D126F0804622F080423346114617E058
:1027300000291ADB25E0DFF8C8B0FB44002C04BFF9
:10274000DBE90001BDE8F08D012C02BFDBE90001EF
:1027500081F00041BDE8F08D022C0AD0032C0CD092
:10276000BA4212D1B8F1000F0BDA23482549BDE86F
:10277000F08D28462449BDE8F08D28467146BDE815
:10278000F08D1D482149BDE8F08D921B12153C2AA1
:10279000C4BF19481D490EDCBAF1000FBEBF12F1CB
:1027A0003C0F0020014606DB624601F0B1F921F042
:1027B0000041FFF761FE002C08BFBDE8F08D012C41
:1027C00004BF81F00041BDE8F08D114A114B022C8D
:1027D00007D001F01BFE2A46BDE8F04D0A4B01F080
:1027E00015BE01F013FE2A46BDE8F04D064B01F080
:1027F0001BBD00000000F07F182D4454FB2109C0D0
:10280000FA270000FB21F9BFFB210940FB21F93F1A
:10281000075C143326A6A13C00B5244B21F00042EE
:1028200087B09A42DCBF0022134629DD204B9A4232
:1028300008D140B94FF00100FDF7F0FCFFF707FEAB
:1028400007B000BD03DBFFF7FDFD07B000BD02AA26
:10285000FFF7E2FA10F0030104BF0DF1080C9CE849
:102860000F000DD0012001290ED0022914D00DF146
:10287000080C00909CE80F00FFF766FD07B000BD54
:10288000FFF78EFC07B000BD0DF1080C00909CE82E
:102890000F00FFF759FD05E00DF1080C9CE80F0053
:1028A000FFF77EFC07B081F0004100BDFB21E93F4E
:1028B0000000F07F2DE9F05F1B48007818B94FF455
:1028C000B470BDE8F09F00211848006802F06CF970
:1028D00011D817491548006802F09AF8804601F0AF
:1028E0007FFE0646134A144B01F012F9044601F02C
:1028F000D3FA80B2E5E70D48006801F071FE80462A
:102900000C4A0E4B01F048F8824600220C4B01F0B5
:1029100057FB0646074A084B01F0FAF8044601F057
:10292000BBFA80B2CDE70000A60000209C0000208A
:10293000000034434AD8124DFB210940FB211940C5
:10294000008066402DE9F047044689464946204606
:1029500002F05CF982460BE0504601F041FE07466A
:10296000144A154B01F052FD054600F0E3FF824684
:10297000504601F035FE05460E4A104B01F01EFC94
:10298000EAD30BE0504601F02BFE0746094A0A4BFA
:1029900001F002F8054600F0CDFF8246504601F0F6
:1029A0001FFE0546034A064B01F0CEFAEAD3504615
:1029B000BDE8F0874AD8124DFB211940FB210940A0
:1029C000FB2109C001480068704700009C000020FE
:1029D0008CB0FEF71BF847E2FDF7AEFF00284DD0A4
:1029E000FDF7A4FF0446FDF7B5FF054605B9002431
:1029F00004B90025FD480078844203D12846FEF73B
:102A0000B0FE38E0052C34D2DFE804F00309141FCF
:102A100029000220FEF720F8FEF79EFE2AE00220A1
:102A2000FEF71AF82846FEF79CFE01210220FEF769
:102A300075F81FE00220FEF70FF82846FEF791FE1A
:102A400000210220FEF76AF814E00220FEF704F8E5
:102A50002846FEF786FE0020FEF7A2F80AE00220D4
:102A6000FDF7FAFF2846FEF77CFE0120FEF798F8F6
:102A700000E000BF00BFDD480470F4E108A8FDF7E6
:102A800061FF00210A9801F007FF04D00A98FEF7C1
:102A900091FD00B9E8E1BDF92210BDF92620881AA0
:102AA00001F027FA074600224FF0804300F0E0F9DA
:102AB00081468A46BDF92010BDF92420881A01F00C
:102AC00018FA074600224FF0804300F0D1F94A4639
:102AD0005346CDE9060100F05FFF0546002213468C
:102AE00001F06EF905D10220FDF7B6FFFEF734FEC6
:102AF000BAE1BDF9260001F03FFF0190FDF73CFF70
:102B00008346BDF9220001F037FF5946009001F0DD
:102B100093FD8246019902F079F8814601F060FD4B
:102B2000074600224FF0804300F0A2F9CDE90401EE
:102B3000BDF9240001F020FF0190FDF717FF834647
:102B4000BDF9200001F018FF5946009001F074FD16
:102B50008246019902F05AF8814601F041FD07468C
:102B600000224FF0804300F083F9CDE90201DDE956
:102B7000042300F011FFCDE9060100F0B5FE054683
:102B800000F0D8FE04469A49097801EBC10202EB35
:102B90000111322202EB410001F0EEFE0546214612
:102BA00002F002F83AD2FFF70DFF06460A99FFF746
:102BB000C9FE054601208E490870284601F010FD27
:102BC00021F0004106468B4A8B4B01F0F7FA1FD2E9
:102BD0000220FDF741FF284601F002FD0646874A24
:102BE000874B01F0EBFA03D21220FEF7BAFD02E0A8
:102BF0000F20FEF7B6FD0021284601F0D5FF03D2D5
:102C00000120FDF7CDFF08E00020FDF7C9FF04E03B
:102C10000220FDF721FFFEF79FFD23E179492046C1
:102C200001F0C2FF03D27548401E774901E07148A8
:102C30007649074600F07EFE0646FDF797FE804681
:102C4000BDF92410BDF92020881A01F095FE4146F7
:102C5000019001F0DBFF074601F0C2FCCDE9040161
:102C6000FDF78AFE8046BDF92610BDF92220881A9C
:102C700001F082FE4146019001F0C8FF074601F0D5
:102C8000AFFCCDE90201DDE90423FFF705FDCDE945
:102C9000060100F04FFE8146FFF794FE07464946C5
:102CA000FFF750FE8246FFF78DFE039001F098FC7F
:102CB0000746574A574B01F0A9FBCDE9040100F044
:102CC00039FE49460790FFF73DFE834652492046AC
:102CD00001F0B2FC8046514901F01CFD074601F0AD
:102CE0002BFEC5B20020424908701E2D01DD1E20BA
:102CF00000E0284605464A48007800B1494E58464B
:102D000001F06EFC21F000480746504601F068FCD7
:102D100021F000413A464346CDE9060101F014F99D
:102D200040D8304601F05CFC07468846504601F02A
:102D300057FC21F000413A464346CDE9060101F037
:102D40003DFA21D2012036490870504601F048FC76
:102D500021F000410746294A294B01F02FFA03D2FE
:102D60001220FEF7FEFC02E00F20FEF7FAFC002125
:102D7000504601F019FF03D20120FDF711FF70E06A
:102D80000020FDF70DFF6CE00020254908700220AF
:102D9000FDF762FE2846FEF7E4FC01210220FDF764
:102DA000BDFE5EE0304601F01BFC074688465846F3
:102DB00001F016FC21F000413A464346CDE90601F8
:102DC00001F0FCF940D2012015490870584601F085
:102DD00007FC21F000410746084A094B01F0EEF9D3
:102DE00022D21220FEF7BDFC21E0000028000020C6
:102DF0002A0000205E8782441857B63F87E561337A
:102E000052C1E03F0000FA4352C1D03F1857C63FBD
:102E10004AD8124DFB21094000007A430000A0412E
:102E200029000020C2B8B23D0F20FEF79AFC002115
:102E3000584601F0B9FE03D20120FDF7B1FE10E0C3
:102E40000020FDF7ADFE0CE00020084908700220CC
:102E5000FDF702FE2846FEF784FC00210220FDF764
:102E60005DFE00BF00BF00BFB6E5000029000020E6
:102E70002DE9F04D1D460C4698B0174621F0004153
:102E800023F00043002814BF4FF0010C4FF0000C5A
:102E90000CEB440CFE4A0CEB02064FEA620C664552
:102EA0002BD33E0018BF012606EB45061644F94A0F
:102EB000964222D3F84A53EA070C02D0944205D135
:102EC00048B918B000201146BDE8F08D002808BFB1
:102ED0004FF0000C01D04FF0010C0CEB440212F546
:102EE000001F0AD8002F14BF4FF0010C4FF0000C48
:102EF0000CEB450212F5001F07D918B03A462B46D5
:102F00002146BDE8F04DFFF7A0BA0022DFF88CA300
:102F1000002CB8BF534526DADFF884C36345A8BF49
:102F2000022220DADFF870C39C451CDCDFF874C392
:102F30000CEB235CBCF1140F08DDCCF1340627FA4E
:102F400006FC0CFA06F6BE420DD108E05FB9CCF1E2
:102F5000140623FA06FC0CFA06F69E4203D10CF086
:102F60000102C2F1020251EA000C19D1002D17DA58
:102F7000002C18BF022A01D0012A07D00220FDF739
:102F80004DF918B0BDE8F04DFFF754BA0220FDF737
:102F900045F9FFF74FFA18B081F00041BDE8F08D18
:102FA000B7F1000C6CD1534525D104F1804212F5E4
:102FB000801201BF00280020B74918B008BFBDE843
:102FC000F08DB548884207DC002DA1BF6046294638
:102FD00018B0BDE8F08D07E0281E05DA80F000414A
:102FE00018B06046BDE8F08DAF497944D1E90001E1
:102FF00018B0BDE8F08DDFF8A0C2634525D1002DE3
:103000001FDA19B1514512D1D8B909E0002840F0B2
:10301000EC82A24A214618B062F31E01BDE8F08D91
:103020000020214618B060F31E01BDE8F08D08DADB
:1030300018B02346BDE8F04D02460020614600F07E
:1030400067BD18B02146BDE8F08D514518DAB5F1DD
:10305000804F0DD0A5F1005CBCF1FF5C10D1B4F144
:10306000000C0DDB18B06146BDE8F04D00F03CBC33
:10307000234618B00246BDE8F04D194600F0A0BF47
:10308000060024F0004C3BD1D9B1514533D1002C7E
:1030900006DD002DA1BF0020514618B0BDE8F08D1F
:1030A000002C01DD002D1BDB002C13DA002D11DBC1
:1030B000012A4FF0000014BF78497C4918B0BDE8E0
:1030C000F08D022A18BF002C0AD0012A08D1002C4A
:1030D00006DA0AE0002CB8BF002D11DA012A04D06C
:1030E000002018B00146BDE8F08D18B000204FF068
:1030F0000041BDE8F08DA1F14050B0F17F601AD0E1
:10310000012000EBE47050EA020421D0624C521E10
:103110004FF0000B104304BF4FF0000B644C6548A8
:1031200083427CDD644A654893421FDD884217DB99
:10313000002D25DB37E0002C00DA4AB1022A0CBF53
:1031400001204FF0FF3018B0BDE8F04D00F0D1BEC7
:103150000120FDF763F818B0BDE8F04DFFF777B92F
:103160004D4A8A4202DC002D0ADC1CE0814202DA70
:10317000002D18DA04E0484B994220DD002D12DDC5
:103180000220FDF74BF8FFF768F905460E460022CE
:1031900053465846214600F013FF18B066F31E014F
:1031A0002846BDE8F08D0220FDF738F8FFF75CF9FE
:1031B0000A46214618B062F31E01BDE8F08D0022D8
:1031C0003046614601F022F980460E466FF001025A
:1031D00001F0C3FD4FF05532394B01F025F842465E
:1031E000334600F0EDFE0022364B01F01DF882461A
:1031F0004246334604911046194600F0E1FE52461D
:10320000049B00F0DDFE8A4600904FF0C0422E4B3A
:103210004046314600F0D4FE2C4A2B4B00E027E01C
:10322000CDE906015146009800F0CAFE82460191A0
:10323000274A284B4046314600F0C2FE5246019BC9
:1032400001F0E4F882460B4602460591DDE90601ED
:1032500000F0A2FBDDE9062300268846304601F097
:10326000D5F85246059B00F0DFFF024600F07EB91C
:103270000020B1F5801F07DA35223046614601F0A3
:103280006CFD06466FF0340000EB215024E0000096
:10329000FFFF1F00FFFF0F000000F03F0000F07F66
:1032A0000000404301FCFFFF4A1F00000000F0FF48
:1032B0000000F0BF0000E0410000F043FFFFEF3FDF
:1032C0005555D53F0000E03F4715F73FFE822B657F
:1032D00044DF5DF80BAE543EA0F2FF300190C1F325
:1032E000130040F07F6141F040510291FE49884255
:1032F000D8BF002004DDFD498142C8BF012001DDA7
:103300000D9008E000200D900198401C019002985B
:10331000A0F5801002900299F54878440B910D9920
:1033200000EBC100D0E900230F9330460A920B99BD
:1033300001F06CF8CDE90601DDE90A2130460F9B6A
:1033400000F02AFB02460B460020EA4900F0E0FBB1
:10335000059102460B460090DDE9060100F030FEC3
:103360001490E5488A464FF00008784402990068B6
:1033700012904FF0005040EA61010D980F9B01EB55
:10338000804000F5002109910A9A129801F03EF858
:1033900032460B9B00F048FF4246534600F010FEB9
:1033A0000646029140465146099B129A00F008FEDB
:1033B000DDE9062300F038FF3246029B01F026F8D3
:1033C000059B009A00F0FCFD0091149A049053466E
:1033D0001046194600F0F4FD06460246C7480B4663
:1033E000029106217844FEF759FFCDE90510029BB2
:1033F00032461046194600F0E3FDDDE9053200F0E3
:10340000DFFD05910646534640461946149A00F0E2
:10341000C3FA009B049A00F0D3FD3246059B00F0EE
:10342000BBFACDE90510424653461046194600F056
:10343000C7FD0022B24B02910A9000F0ADFADDE91F
:10344000053200F0A9FA0E464246AD4B404600F068
:10345000DDFF029B0A9A00F0D9FFDDE9053200F09A
:10346000E3FE424602910A9033461046514600F070
:10347000A7FDCDE906015346149A02990A9800F077
:103480009FFD8A460290334642460099049800F018
:1034900097FD5346029A00F07FFA82460B46024699
:1034A0000591DDE9060100F077FADDE90623002049
:1034B0008846064600F0AAFF5246059B00F0B4FE7F
:1034C000824609914FF060428E4B3046414600F0F3
:1034D00077FD049006918C4A8A4B5046099900F07A
:1034E0006FFD82460291894A894B3046414600F081
:1034F00067FD5246029B00F04FFA864B7B440D9AC3
:1035000003EBC203D3E9002300F046FA0E900791C3
:10351000019800F0EEFC0591DDE9061382460E9A53
:10352000049800F039FA7C4A7A440D9B02EBC303FD
:10353000D3E900230093029200F02EFA5246059B35
:1035400000F02AFA0026884652463046059B00F0D5
:103550005DFF009B029A00F059FF069B049A00F061
:1035600055FF079B0E9A00F05FFE024600200B46B7
:1035700002903846294600F023FD824601912B46F1
:1035800038461946029A00F041FF3246434600F0A1
:1035900017FD5246019B00F0FFF907468A46324666
:1035A00043462946029800F00BFD05460E463A4672
:1035B000534600F0F1F9594A8846914221DBA8EBC5
:1035C000020353EA000210D12A46334600F01EFFE0
:1035D000CDE90401524A534B3846514600F0DCF91C
:1035E000DDE9042300F0EAFD21D20220FCF716FEFB
:1035F000FEF733FF0A46214618B062F31E01BDE80C
:10360000F08D494B28F000429A4210D3474A08EB0C
:10361000020353EA00027FF4C6AD2A46334600F0A7
:10362000F5FE3A46534600F0C9FD7FF6BCAD0022D8
:10363000019228F000403E493E4A01EB205182426F
:1036400023DA481C4FF4801121FA00F040443A4A32
:10365000C0F30A517A44394BA1F2FF31CB4020EA42
:103660000303C0F3130040F48010C1F11401C840FB
:1036700012680190B8F1000FBCBF4042019028468B
:10368000314600F0C3FE05460E462A46334638460C
:10369000514600F081F94FF000084246284B404661
:1036A000059100F08DFCCDE90601264A264B4046E7
:1036B000059900F085FC009102902A463346404669
:1036C000059900F0A3FE3A46534600F0ADFD1F4AAF
:1036D0001F4B00F075FC009B029A00F05DF9074655
:1036E000884602460B4635E08E9803007AB60B00FA
:1036F000CA1A00000000F03FCA1B0000301A000088
:103700000000084009C7EE3FFD033ADCF5015B14F9
:10371000E02F3EBE08190000CC18000000009040C9
:10372000FE822B654715973C00CC904000346F3FDC
:1037300001FCFFFF0000E03FE0180000FFFF0F006A
:10374000432EE63F396CA80C615C20BEEF39FAFECF
:10375000422EE63FDDE9060100F01EF9DDE9062311
:1037600005460E4600F052FE3A46434600F05CFD28
:103770000F462A46334600901046194600F020FCBA
:10378000824602462E4888460B4605217844FEF7BD
:1037900085FD5246434600F013FC2A46334600F0AE
:1037A00043FD80468A463B4628463146009A00F053
:1037B00007FC3B46009A00F0EFF8069100900022CB
:1037C0004FF080434046514600F020FE0F460C90DB
:1037D000424653462846314600F0F2FB3B460C9ADF
:1037E00000F096F9069B009A00F010FE2A46334638
:1037F00000F00CFE0022134B00F016FD0546019868
:103800000E4601EB00510815002810DC2846314611
:10381000019A01F0A2FAFEF7EBFA042808BFFEF7BE
:1038200023FE28463146019A01F097FA05460B46D9
:1038300018B02A4658462146BDE8F04D00F0C0BBFE
:10384000B81600000000F03F00B5254B21F0004203
:1038500087B09A4203DC0022134600922BE0214BF2
:103860009A4208D140B94FF00100FCF7D7FCFEF7AF
:10387000EEFD07B000BD03DBFEF7E4FD07B000BDC1
:1038800002AAFEF7C9FA10F003014FF001000DD0B3
:10389000012914D002291AD00DF1080C9CE80F0060
:1038A000FEF77EFC07B081F0004100BD0DF1080C71
:1038B00000909CE80F00FEF747FD07B000BD0DF13A
:1038C000080C9CE80F00FEF76BFC07B000BD0DF183
:1038D000080C00909CE80F00FEF736FDE2E70000C0
:1038E000FB21E93F0000F07F2DE9F04106460F463D
:1038F00000F0A6FC041E0D4618BF0120284320F04E
:103900000040C0F17F6000F1E040C00F0ED0301CDD
:1039100018BF0120384320F00040C0F17F6000F163
:10392000E040C00F04BF0120FCF778FC2046294688
:10393000BDE8F08121F00042A2F16052B2F5801F93
:1039400001F0004328BFD2F17F6C0BD95FEA001C65
:1039500043EAC20242EB507018BF704728BF20F004
:1039600001007047B2F5801FBCBF184670474FEA90
:10397000410C1CF5001F02D2084601F010B970B5C9
:1039800000F0C8FB00000089FFF7F6BF4FF00040D1
:10399000A0F580007047000010B591EA030F48BF02
:1039A00083F0004300F13A85841A71EB030C05D2D1
:1039B000121943EB0C03001B61EB0C01DFF824E14F
:1039C0004FEA1154A4EB135C1EEA430F18BF9EEAA2
:1039D000445F73D023EA0E03DCF1200E21EA045188
:1039E00043F4801332D322FA0CFE10EB0E0023FABC
:1039F0000CFE41EB0E01CCF1200E03FA0EFE10EB93
:103A00000E0051F10001B1F5801FCCF1200E32D231
:103A100001EB045112FA0EF2BDE8104058BF704796
:103A2000401C38BF5FEA420218BF7047002814BF2D
:103A300020F0010041F100014FEA410313F5001F9E
:103A400038BF7047A1F1C04100F0B2BB012A43EB7F
:103A50000302ACF1200CDCF11F0E32BF4FF0000E60
:103A600023FA0CF310EB030041EB0451B4EB115FAC
:103A7000D0D0A1EB045101F5801149085FEA300074
:103A800001EB04510ED350F1000038BF12FA0EFEC4
:103A900008D1BDE81040C9E7401C38BF5FEA4202C8
:103AA000CAD1C3E7BDE810404FEA410313F5001F38
:103AB00038BF7047A1F1C04100F07ABB9EEA445F75
:103AC00008D011EA5E0FBDE8104004BF01F00041CC
:103AD00000207047BDE8104070B500F01BFB00BF30
:103AE00064FBBE3E0000E0FF02494FF0000001F021
:103AF00002B900BF0000F87F491058BFC1F1404132
:103B00005B1058BFC3F140438B42EFF30080704716
:103B10002DE9C04130B4DFF8A0C23CEA111418BF4F
:103B20003CEA131400F0EC8081EA03051CEA11144E
:103B300044EAD57418BF1CEA131500F0C780A4EB43
:103B400005044FF0004545EAC12145EAC32341EA97
:103B5000505143EA525304F17F74994204F5003402
:103B60004FEAC0204FEAC22208BF904200F09C807A
:103B70004FEA13650FF24016765D4FEA134506FBD8
:103B800005F7C7F1807706FB07F74FEAD737A7FBA2
:103B900003687642C8F58038A7FB06CE38BFA8F187
:103BA000010807FB08E64FF0000EA6FB028CE6FBBF
:103BB00003CEDCF1000CCEF1004E38BFAEF1010EA9
:103BC000A6FB0C584FF000074FF00005E6FB0E87F0
:103BD000A1FB08C6A0FB07CE16EB0E0645F10005BB
:103BE000E1FB076515F1E04E7EBFA4F580345FEA86
:103BF00046066D4116F1800745F100054FEA17278B
:103C00004FEA066647EA0567A6F1DE46B6F1805F31
:103C10004FEA15251FD9384624F0010C05EBC47175
:103C2000BCF1FE6F01EB0C1102D8F0BCBDE80081C5
:103C300024425CBF01F5801E9EEAC47F02D4F0BC22
:103C4000BDE80081244238D4F0BCA1F1C041BDE8F8
:103C5000004100F0ADBA4FEAD22242EA43524FEAA5
:103C6000D323A7FB02864FEAD02040EA415007FB4E
:103C700003661EEA0E0F4FEAD12105FB026658BF0C
:103C8000A6EB0056B6EB00564FEA520E4EEAC37E44
:103C900018EB0E0E56EB530EBDD518EB02085E4125
:103CA0007F1C55F10005B6E74FF480154FF0000773
:103CB0004FF000064FF00008ADE7F0BC4FF00000F9
:103CC00001F1C04101F00041BDE8008111EA0C1F83
:103CD0000CEA131500D00CE013EA0C1F00F025804D
:103CE0004FF00000F0BC81EA030101F00041BDE8A3
:103CF0000081F0BCBDE8004181EA030100F058BA40
:103D0000F0BCBDE8004170B500F004FA097EFC3E4D
:103D100000F007B881EA03014FF0000001F0004114
:103D2000704781EA030100F043BAF0BCBDE80041EE
:103D30004FF0000021497047FFFDFBF9F7F5F4F261
:103D4000F0EEEDEBE9E8E6E4E3E1E0DEDDDBDAD836
:103D5000D7D5D4D3D1D0CFCDCCCBCAC8C7C6C5C494
:103D6000C2C1C0BFBEBDBCBBBAB9B8B7B6B5B4B3AB
:103D7000B2B1B0AFAEADACABAAA9A8A8A7A6A5A496
:103D8000A3A3A2A1A09F9F9E9D9C9C9B9A9999985A
:103D90009797969595949393929191908F8F8E8EFD
:103DA0008D8C8C8B8B8A898988888787868585848A
:103DB00084838382828181800000FF070000F87F76
:103DC00051EA030C17D41CF5801F58BFBCF5801FA7
:103DD00000F10680994218BF704708BF90427047B3
:103DE00007D711F5801F58BF13F5801F19D49942CA
:103DF0007047894270471CF5801F08D5BCF5801FAD
:103E0000F7D58B4218BF704708BF824270474FF406
:103E1000001C1CEB410F38BF1CEB430F01D28B423F
:103E2000704770B500F076F9922449004FF00051C8
:103E30004FF08053FFF760BE4FEA41034FEA535300
:103E4000A3F58063D3F11E03C8BFD3F1210C0CDDB1
:103E50004FF0004242EAC12242EA505232FA03FCD9
:103E60008CEAE17CACEBE1707047102BC4BF002002
:103E7000704703F5787CBCF1FF3F04D06FF000423F
:103E800082EA2100704770B500F044F9499224801D
:103E900000207047F2E700004FEA1153A3F580635A
:103EA000D3F11E03A8BFD3F1200C08DB4FF0004272
:103EB00042EAC12252EA505232FA03F070470942F4
:103EC0000BD4102BC4BF0020704703F5787CBCF1E5
:103ED000FF3F05D04FF0FF3070474FF000007047B4
:103EE00070B500F017F900BF499224800020704798
:103EF000F0E710F0004248BF4042B0FA80F310FAF9
:103F000003F10AD0C3F11D0303F580634FEA41506A
:103F100002EB035202EBD12170474FF000007047D3
:103F2000B0FA80F310FA03F10AD0C3F11D0303F5D0
:103F300080634FEA41504FEA035202EBD1217047B0
:103F40004FF000007047000051EA030C17D41CF535
:103F5000801F58BFBCF5801F00F10680994218BF32
:103F6000704708BF9042704707D711F5801F58BFB0
:103F700013F5801F19D499427047894270471CF588
:103F8000801F08D5BCF5801FF7D58B4218BF70473E
:103F900008BF824270474FF4001C1CEB410F38BF32
:103FA0001CEB430F01D28B42704770B500F0B2F8A2
:103FB000922449004FF000514FF08053FFF79CBD11
:103FC000DFF848C170B51CEA111E1EBF1CEA1315AC
:103FD0009EEA0C0F95EA0C0F00F06F8081EA030453
:103FE00023EA4C134EEAD47E21EA4C1141F48011AD
:103FF00043F48013AE44A1FB024CA0FB0365AEF179
:104000007F7E361955EB0C05A1FB034C4CF10003E8
:10401000A0FB021C16EB0C06654153F1000309429C
:1040200018BF46F0010613F4007F0BD14FEA0331AD
:104030004FEA0530340341EA155140EA16506FF05B
:1040400003020AE04FEAC3214FEAC520F40241EA25
:10405000555140EA56506FF0020202EB2E4201EB3E
:10406000025585EACE710AD05FEA440C18BF24F0ED
:10407000004450F1000041F1000120EAD47040F208
:10408000FE7C624500D270BDA84214BF4FF0804450
:104090004FF04044002E08BF0024BEF1806FA8BF3F
:1040A000A1F1C041BDE8704080F282804FF0000075
:1040B00001F1C04101F0004170479EEA0C0F0CEA8B
:1040C000131518BF95EA0C0F06D04FF0000081EAD7
:1040D000030E0EF0004170BD00F01CF88900013E97
:1040E00000F007B800F009B84FEA430C5FEA5C5CE7
:1040F00008D081EA030100F05BB84FEA410C5FEAA7
:104100005C5CF6D14FF00000014970470000FF07EA
:104110000000F87F0EF1020E2EF0030E5EF8046B25
:10412000364205D4012A43EB030515F5001F12D8CA
:10413000012841EB010C1CF5001F0CD80ED14FEAF1
:10414000D17C15F5001F0CEB4C0C0CF1020C08BFD8
:104150004CEBD37C04E04FF0080C01E04FEAD37C39
:104160000CEB4C0526FA05F606F00706B6F1040C32
:1041700006D20EEB860CBDE870404CF0010C604797
:10418000DFE80CF0090B02024FF000414FF0000095
:10419000A1F5002170BD19461046012851EB01041C
:1041A00018BFD4F5001484BF002001F0004170BD99
:1041B0000808A0F500114FEA3101704753EA010CDD
:1041C00017D41CF5801F58BFBCF5801F00F1068076
:1041D0008B4218BF704708BF8242704707D713F55C
:1041E000801F58BF11F5801F19D48B4270479B4226
:1041F00070471CF5801F08D5BCF5801FF7D5994284
:1042000018BF704708BF904270474FF4001C1CEB6A
:10421000430F38BF1CEB410F01D2994270470FB4D6
:104220000CBC03BCFFF7C1BE91EA030F10B581F0CF
:1042300000413FF5B9AB83F0004300F0EFB8000058
:104240002DE9F04101F5801CBCF5001FC0F2C380D0
:104250004FEA115C21EA0C510CF1FD0C41F4801184
:104260005FEA5C0C0CF5C07C01D3400049413DA4E1
:10427000890241EA905187028E0E0A0CA45D04FB6C
:1042800004F602FB06F6C6F14046A4FB0662F60DF4
:1042900046EA422606FB06F4A4FB01235242C3F180
:1042A000404338BF5B1EA6FB02420024E6FB03240A
:1042B000D20B42EA4446A6FB0623A1FB02E2A3FB83
:1042C00007E4A4184FF0000252F10002E3FB0142A0
:1042D0006442C2F1404E38BFAEF1010EA6FB04238A
:1042E0004FF00002E6FB0E32A2FB03464FF0000443
:1042F000B61954F10004E2FB0264A1FB06E6A4FB3C
:1043000007E816EB08064FF0000858F10008E4FB38
:1043100001687642C8F1405838BFA8F10108A2FBF5
:1043200006E4A3FB08E52D194FF0000454F1000446
:10433000E2FB0854A1FB05E6A7FB04E818EB06081E
:104340004FF0000656F10006E1FB048618F1200547
:1043500056F10006A809A8F11B08B10908F03F08AA
:10436000B8F10A0F40EA86601CD901EB0C51BDE898
:10437000F08100BFFCF5EEE8E2DDD8D3CFCBC7C3B8
:10438000C0BDB9B6B4B1AEACA9A7A5A3A19F9D9B72
:104390009A9896959392908F8D8C8B898887868535
:1043A00084838281A0FB006800FB01F208EB4208D5
:1043B000B8EB872807D5341858EB0104D5D5401C35
:1043C00051F10001D1E7341A78EB0104CDD4401E3D
:1043D00071F10001C9E75FEA4C0C5FEA9C5C0DD10A
:1043E00005D34FF0000001F00041BDE8F081BDE8C9
:1043F000F04170B5FFF78EFE6DDBFFBEBDE8F0410A
:104400004FF00000004970470000F87F10B591EAB6
:10441000030F48BF83F000433FF5C6AA841A71EB2F
:10442000030C07D212198CF0004C43EB0C03001B59
:1044300061EB0C01DFF8A4E14FEA1154A4EB135C2B
:104440001EEA430F18BF9EEA445F00F0B08023EAE3
:104450006E03524221EA0451C3EB6E0338BF5B1E68
:10446000DCF1200E25D322FA0CFE10EB0E0043FAED
:104470000CFE41EB0E01CCF1200E03FA0EFE10EB08
:104480000E0051F10001CCF1200E29D412FA0EF2E7
:1044900001EB0451BDE8104058BF7047401C1CBFE1
:1044A000B2F1004F704700280CBF491C20F00100FA
:1044B000704712EB020E43EB030218BF4FF0010EE0
:1044C0004EEA4202ACF1200CDCF11E0E54D943FA44
:1044D0000CFE10EB0E0051F1FF31CCF11E0ED5D5C4
:1044E0000EF1010E12FA0EFE404141EB010101EB0B
:1044F000445C5FEA5C5C10D910EBDE7001EB0451A8
:1045000038BFBEF1004FBDE8104018BF704700280B
:104510000CBF491C20F00100704730D24FEAD42C68
:1045200011F5001124F400641BD0B1FA81F20B3AAA
:10453000A41AA41ED2F12003914030FA03F31943C8
:10454000904001EBCC71002C01EB0451BDE8104010
:10455000A8BF704701F1C0414FF0000001F00041D9
:104560007047B0FA80F310FA03F100D110BDE41ADD
:10457000173C4805C90AE4E701EB045110BD491096
:1045800001EB0451BDE810404FEA300002E04FF06B
:10459000000170474A0008BF0042F8D0B2F5001F82
:1045A00028BF704701F000414FF0000070479EEABD
:1045B000445F07D011EA5E0FBDE8104004BF002140
:1045C00000207047BDE8104070B5FFF7A3FD00BFA5
:1045D00040DFF63E83F00041104670470000E0FFE8
:1045E00043004FEAD30C4FEA3C0C43401FBF400747
:1045F0000CF1605113F0FE4F70471CF0006F03D1B7
:1046000000200CF0004170470CF0004343EA50706A
:1046100010B540EACC0000F07CFA00BF0000009228
:104620004FEA0001FFF7C4BD4FF000414FF000001A
:10463000A1F500217047000090EA010F48BF81F00A
:10464000004100F1EA82421A3CBF801A89184FEA01
:10465000D0524FF07F4C1CEA410FA2EBD15318BF50
:104660009CEA026F00F03B804FF0004C4CEA0020C7
:104670004CEA012121FA03FC10EB0C0C1ED202F1D2
:10468000FF325FEA1C2040EBC25038BF70471CF07D
:104690007F0F4FEA400C18BFBCF17F4F38BF704707
:1046A000C3F12003994008BF20F00100BCF17F4F07
:1046B00038BF7047A0F1C04000F071BA4FEA3C002B
:1046C000000A40EBC25028BF1CF0FF0F4FEA400C1D
:1046D000E6D018BFBCF17F4F38BF7047EAE79CEACD
:1046E000026F05D010EA5C0F08BF00F00040704771
:1046F00010B500F00EFA00BF64FBBE3E401058BF7C
:10470000C0F14040491058BFC1F140418142EFF330
:10471000008070474FF47F0C1CEAD0121EBF1CEAC9
:10472000D11392EA0C0F93EA0C0F00F0858090EA07
:10473000010F48BF42F4807240F4000C41F40000C5
:104740002CF07F4120F07F4000B58142A2EB0302B4
:104750000FF2081CACEB504EC0F100009EF800E0D8
:104760004FEA4E0E00FB0EFC38BF49004FEA2C1CEE
:1047700002F5FA020CFB0EF34FEACE1E4FEA112CA3
:104780004FEAC1210EEB635E42EB22420EFB0CFCB2
:104790004FEA1C5300FB03114FEA112C4FEA013181
:1047A0000EFB0CFC4FEADC4C00FB0C11C14228BF95
:1047B00009184CEB03335DF804EB10EB410143EBBC
:1047C000C250B2F57C0F38BF704729D512F0F00FF8
:1047D0001CBF00F1C04000F00040704700818283A0
:1047E0008485868788898B8C8D8E8F919293959600
:1047F00097999A9C9D9FA0A2A3A5A7A8AAACAEB08A
:10480000B2B3B5B7B9BCBEC0C2C5C7C9CCCED1D48E
:10481000D7D9DCDFE2E6E9ECF0F3F7FAFE000000BE
:104820004FEA400C0CF1807CBCF17E4F28BF7047F2
:10483000B0F1C04000F0B3B990EA010F0CEAD11317
:1048400048BF42F48072624538BF634507D213F413
:104850007F0F16D080EA010000F00040704710B5CD
:1048600000F057F9097EFC3E00F005B880EA01002F
:1048700000F00040704780EA010000F0004000F0C6
:104880008EB912F47F0F04BF0248704780EA01001E
:1048900000F085B90000C07F50EA010C00F11380E0
:1048A0001CF5000F58BFBCF5000F01D488427047BB
:1048B00007D710F5000F58BF11F5000F15D4884227
:1048C0007047894270471CF5000F04D5BCF5000FF6
:1048D000F7D5814270474FF0807C1CEB400F38BF0A
:1048E0001CEB410F01D28142704710B500F011F965
:1048F000922449004FF000504FF08051FFF7FEBE68
:1049000041000B0ED3F19E0208D950F400034FEA88
:10491000032323FA02F048BF4042704710B500F06D
:10492000F8F800BF49922480002070476FF00042E1
:1049300082EA200070470000C10DD1F19E0206DB23
:104940004FEA002343F0004323FA02F0704700428D
:1049500007D54FEA4001B1F1FE4F02D24FF00000FF
:10496000704710B500F0D5F84992248000207047B8
:104970006FEA20007047000010F0004148BF40423D
:10498000B0FA80F310FA03F2C3F19D030BD051EAA1
:10499000C35101EB1220530638BF704700F10100EC
:1049A00008BF20F00100704750EA010C00F11380AD
:1049B0001CF5000F58BFBCF5000F01D488427047AA
:1049C00007D710F5000F58BF11F5000F15D4884216
:1049D0007047894270471CF5000F04D5BCF5000FE5
:1049E000F7D5814270474FF0807C1CEB400F38BFF9
:1049F0001CEB410F01D28142704710B500F089F8DD
:104A0000922449004FF000504FF08051FFF776BEDE
:104A10004FF47F0C1CEAD0121EBF1CEAD11392EA9D
:104A20000C0F93EA0C0F00F0478090EA010F48BF8B
:104A300042F480724FF0004C4CEA00204CEA012115
:104A400002EB0302A0FB0113A2F50002002918BF2C
:104A500043F001035B0028BF4FEA330342EB2242DD
:104A60005FEA132C4CEBC2502EBFBCEB436FB2F588
:104A70007C0F70474FEA036CBCF1004F08BF20F079
:104A80000100B2F57C0F38BF70470BD582F0FF02F2
:104A900012F5803FC8BF704700F1C040D8BF00F09A
:104AA0000040704700F5000C5FEA4C0C48BF7047AF
:104AB000B0F1C04000F073B890EA010F0CEAD113D6
:104AC00048BF42F48072624538BF634504D280EA31
:104AD000010000F00040704710B500F01AF800BF68
:104AE0008900013E00F007B800F009B85FEA410C08
:104AF0005FEA1C6C08D080EA010000F050B85FEA61
:104B0000400C5FEA1C6CF6D14FF00040A0F580002D
:104B100070470EF1020E2EF0030E5EF8044B244295
:104B200004D44FEA4102B2F17F4F11D84FEA40035B
:104B3000B3F17F4F0CD80ED14FEAD07CB2F17F4F4A
:104B40000CEB4C0C0CF1020C08BF4CEBD17C04E0DC
:104B50004FF0080C01E04FEAD17C0CEB4C0324FA37
:104B600003F404F00704B4F1040C06D20EEB840C39
:104B7000BDE810404CF0010C6047DFE80CF007087E
:104B800002024FF00040A0F5800010BD0846420030
:104B900018BFD2F1807288BF00F0004010BDFF2125
:104BA00041EAD050C005704751EA000C00F1138073
:104BB0001CF5000F58BFBCF5000F01D481427047AF
:104BC00007D711F5000F58BF10F5000F15D481421B
:104BD0007047894270471CF5000F04D5BCF5000FE3
:104BE000F7D5884270474FF0807C1CEB410F38BFEF
:104BF0001CEB400F01D28842704780EA010081EA35
:104C0000000180EA0100FFF7F8BE000090EA010F02
:104C100048BF81F000413FF516AD421A04D882F03A
:104C20000042A0EB020011444FEAD0524FF07F4CFB
:104C30001CEA410FA2EBD15318BF9CEA026F4AD085
:104C40004FF0004C4CEA00204CEA012121FA03FC11
:104C5000B0EB0C0C0FD412F0FE0F36D05FEA4C0014
:104C60001DD5001240EBC25038BF70471CF03F0FFB
:104C700018BF70470BE0A2F101025FEA1C2040EB75
:104C8000C25038BF70471CF07F0F18BF7047C3F188
:104C90002003994014BF401E20F001007047800897
:104CA0004FEA122308BF7047B0FA80FCA2EB0C0257
:104CB000CCF1280C60FA0CF093EA122F04BF00EB41
:104CC000C25070474FEAC3707047130A5FEADC10A6
:104CD00008BF7047F6E79CEA026F04D010EA5C0F49
:104CE00008BF0020704710B5FFF713FF40DFF63E06
:104CF00081F0004070470CF00F03092B08BF08201B
:104D000000F059800A2B0BD0082B18BF704708BF42
:104D10001CF0400F0AD04FF000004FF00001704728
:104D20001CF0400F18BF4FF0004070471CF0100FF0
:104D300008D020F0704300F07F4242EAD3014FEAEE
:104D40004370704700F0604021F07F4242EA000269
:104D500001F07F4040EA727070474FF0FF0C4CF456
:104D6000E06C1CEA11531CBF9CEA030C9445C2BFC3
:104D7000DA4201EB02517047002B0DD0BCF1000F5D
:104D80000FD0002A01F00041A4BF41F0E04141F002
:104D90007F614FF00000704701F000414FF00000CC
:104DA000704750EA01334FF09B0C18BF4CF0806CF9
:104DB0007EF49AAE70471CF4801F11D01CF4E02FD3
:104DC00003D06FEACC31490070474FF04050EFF309
:104DD000008222F0704242EA000282F300887047AB
:104DE0004FF0000070470000000000000000F03F9E
:104DF000000000000000F83F00000000000000007C
:104E00000000004003B8E23F000000000000000086
:104E100006D0CF43EBFD4C3E033333333333E33F14
:104E2000FFAB6FDBB66DDB3F4D268F515555D53F40
:104E300001411DA96074D13F65DBC9934A86CD3F0E
:104E4000EF4E454A287ECA3F3E5555555555C53FFC
:104E500093BDBE166CC166BF2CDE25AF6A56113FEE
:104E6000F16BD2C541BDBBBED0A4BE726937663EF0
:104E70004FBB610567ACDD3F182D4454FB21E93F72
:104E80009BF681D20B73EF3F182D4454FB21F93F61
:104E9000E2652F227F2B7A3C075C143326A6813CE7
:104EA000BDCBF07A8807703C075C143326A6913C92
:104EB000C4EB98999999C9BF711623FEC671BCBFFE
:104EC0006D9A74AFF2B0B3BF9AFDDE522DDEADBF66
:104ED0002F6C6A2C44B4A2BF0D5555555555D53F7E
:104EE000FF8300922449C23F6E204CC5CD45B73F99
:104EF000513DD0A0660DB13FEB0D76244B7BA93F11
:104F000011DA22E33AAD903F4C5555555555A53F22
:104F10007751C1166CC156BF9015CB19A001FA3E4E
:104F2000AD529C804F7E92BEC4B1B4BD9EEE213E78
:104F3000D43888BEE9FAA8BD0000000000000000D7
:104F400000004054FB21F93F3163621A61B4D03D47
:104F50000000601A61B4D03D7370032E8A19A33B20
:104F60000000002E8A19A33BC14920259A837B3972
:104F700000000000000000006E83F9A22915444ED5
:104F8000D15727FCC0DD34F5999562DB4190433C55
:104F9000AB6351FE61C5BBDE3A6E24B7E0D24D4231
:104FA000EA2E49061C92D1091CEB1DFE3EA729B131
:104FB000F53582E88444BB2E26709CE9417E5FB4BF
:104FC00039D69139F43953838B5F849C3B28F9BDE2
:104FD000FF97F81F0F9805DE8B112FEF1F6D0A5AF0
:104FE000CF7E366DB709CB27663F464F2DEA5F9ED1
:104FF000C7BA27757BF1E5EBF739073DEA92528A8C
:10500000B15FFB6B085D8D1FA6F810111111813F78
:10501000D561C119A0012ABF7DFEB157E31DC73E6E
:10502000EB9C2B8AE6E55ABE7CD5CF5A3AD9E53DB2
:105030005050000800000020EC0000006C01000847
:105040003C510008EC000020940600008801000894
:10505000000000000102030401020304060708091E
:105060000204060800A24A0400000000000000003C
:105070000102030406070809000000000000000008
:105080000000000000000000000000000000000020
:105090000000000000000000000000000000000010
:1050A0000000000000000000000000000000000000
:1050B00000000000000000000000000000000000F0
:1050C00000000000000000000000000000000000E0
:1050D00000000000000000000000000000000000D0
:1050E00000000000000000000000000000000000C0
:1050F00000000000000000000000000000000000B0
:10510000000000000000000000000000007D000022
:10511000000000007C7B0000000000000000000098
:1051200000007A0000000000000000000000000005
:0C51300000000000000000000000000073
:04000005080001CD21
:00000001FF
