:020000040800F2
:1000000050040020C91A0008090200080B02000869
:100010000F02000813020008170200080000000089
:100020000000000000000000000000001B020008AB
:100030001D020008000000001F0200082102000845
:10004000E31A0008E31A0008E31A0008E31A00089C
:10005000E31A0008E31A0008E31A0008E31A00088C
:10006000E31A0008E31A0008E31A0008E31A00087C
:10007000E31A0008E31A0008E31A0008E31A00086C
:10008000E31A0008E31A0008E31A0008E31A00085C
:10009000E31A0008E31A0008E31A0008E31A00084C
:1000A000E31A0008E31A0008E31A0008E31A00083C
:1000B000E31A0008E31A0008E31A0008E31A00082C
:1000C000E31A0008E31A0008E31A0008E31A00081C
:1000D000E31A0008E31A0008E31A0008E31A00080C
:1000E000E31A0008E31A0008E31A0008E31A0008FC
:1000F000E31A0008E31A0008E31A0008E31A0008EC
:10010000E31A0008E31A0008E31A0008E31A0008DB
:10011000E31A0008E31A0008E31A0008E31A0008CB
:10012000E31A0008E31A0008E31A0008E31A0008BB
:10013000E31A0008E31A0008E31A0008E31A0008AB
:10014000E31A0008E31A0008E31A0008E31A00089B
:10015000E31A0008E31A0008E31A0008E31A00088B
:10016000E31A0008E31A0008E31A0008E31A00087B
:10017000E31A0008E31A0008E31A0008E31A00086B
:10018000E31A0008E31A0008DFF80CD001F0C4FC01
:1001900000480047D90100085004002010B5A820ED
:1001A00000F040F84FF4FA7000F058F800F092F8C0
:1001B00000F06CF9C82000F051F84FF47A7000F0AC
:1001C0004DF800F061FAC82000F048F800F057FA46
:1001D00007A001F0B3FC10BDFFF7E0FF06E000F060
:1001E00065FA00F0A9F9642000F038F8F7E700009C
:1001F0004D415832313130302E2E2E49532E2E2E75
:100200002E2E4F4B0D0A0000704700BFFEE700BFC7
:10021000FEE700BFFEE700BFFEE77047704770478C
:10022000704700004FF0E021096921F004014FF010
:10023000E0221161C21700EB5272C2F3C702234BD6
:100240001A701946097801EB4102C2EBC1114FF651
:10025000FF7202EAC1011E4A1180704701461C4A22
:1002600012884A434FF0E0235A6100229A6101222A
:100270001A6100BF4FF0E022106900F001021AB1CC
:1002800000F48032002AF5D000224FF0E0231A61FA
:100290009A61704701460D4A12784A434FF0E023B5
:1002A0005A6100229A6101221A6100BF4FF0E022D8
:1002B000106900F001021AB100F48032002AF5D072
:1002C00000224FF0E0231A619A617047000000207D
:1002D0000200002000B587B00121084600F010FCA4
:1002E0000121102000F066FC072209212E4800F0B1
:1002F00058FE07220A212C4800F053FE4FF40070EC
:10030000059002208DF8180000208DF81A000220B8
:100310008DF8190001208DF81B0005A9224800F076
:10032000B5FD4FF48060059001208DF81A00002083
:100330008DF81B0005A91C4800F0A8FD4FF4E13022
:1003400001900020ADF80800ADF80A00ADF80C00EF
:10035000ADF810000C20ADF80E0001A9134800F014
:10036000C0FE0121114800F044FF07B000BD70B588
:1003700004460D46E1B20D4800F066FF00BF402183
:100380000A4801F011F80028F9D0204670BD10B5D8
:10039000044600BF2021054801F006F80128F9D1E4
:1003A000024800F055FF10BD00000240001001405F
:1003B00070B50546002405E0601CC4B2C82C01DD00
:1003C000002070BD02215A4801F035FA0028F3D010
:1003D0002946574801F0F8F9002405E0601CC4B232
:1003E000C82C01DD0020ECE70121514801F023FA7F
:1003F0000028F3D04E4801F0E4F9C0B2E1E700B5BF
:1004000087B00121084600F07BFBE0200590022028
:100410008DF8180000208DF81A0002208DF81900C0
:1004200000208DF81B0005A9424800F02FFD052291
:100430001146404800F0B5FD052206213D4800F078
:10044000B0FD052207213B4800F0ABFD0121080368
:1004500000F0B0FB0020ADF80000ADF80200ADF8F0
:100460000400ADF80600ADF80800ADF80A00ADF8DC
:100470000E000720ADF8100069462D4801F040F845
:1004800001212B4801F01FF907B000BD00B587B06E
:100490000121084600F034FBE020059002208DF891
:1004A000180000208DF81A0002208DF81900002095
:1004B0008DF81B0005A91F4800F0E8FC0522114635
:1004C0001C4800F06EFD052206211A4800F069FD67
:1004D00005220721174800F064FD0121080300F000
:1004E00069FB0020ADF800004FF48270ADF8020007
:1004F0000020ADF804000220ADF806000120ADF8A0
:1005000008004002ADF80A001820ADF80C000020E9
:10051000ADF80E000720ADF810006946044800F061
:10052000EFFF0121024801F0CEF807B000BD000046
:10053000003001400000024010B524A001F0FEFA96
:100540002348B0F9001023A001F0F8FA22A001F02E
:10055000F5FA22A001F0F2FA1D48B0F902101DA030
:1005600001F0ECFA1CA001F0E9FA1DA001F0E6FA96
:100570001748B0F9041017A001F0E0FA16A001F036
:10058000DDFA18A001F0DAFA1748B0F9001011A04E
:1005900001F0D4FA10A001F0D1FA14A001F0CEFAC3
:1005A0001148B0F902100BA001F0C8FA0AA001F03E
:1005B000C5FA0FA001F0C2FA0B48B0F9041005A06B
:1005C00001F0BCFA04A001F0B9FA10BD61783A005C
:1005D00004000020256400000D0A000061793A0043
:1005E000617A3A0067783A000A00002067793A0099
:1005F000677A3A001CB50121042000F081FA10202E
:10060000009001208DF8040000208DF806000220E3
:100610008DF8050000208DF807006946484800F075
:1006200035FC10204649183108801CBD70B50546C0
:100630000C46102042491A3108802846FFF7B8FEC0
:1006400006462046FFF7B4FE10203D4918310880C9
:10065000304670BD70B50446102039491A31088003
:1006600004F18001C8B2FFF7A3FEFF20FFF7A0FE50
:1006700005461020324918310880284670BD10B553
:100680002020FFF7E7FF10BD10B5FFF7B3FF7F2174
:100690000020FFF7CBFF6420FFF7E0FD01211620CB
:1006A000FFF7C4FF6420FFF7D9FD10BD10B525206A
:1006B000FFF7D0FF04462420FFF7CCFF44EA0020D8
:1006C00000B2204908802720FFF7C4FF04462620F7
:1006D000FFF7C0FF44EA002000B21A4948802920F1
:1006E000FFF7B8FF04462820FFF7B4FF44EA0020D4
:1006F00000B2144988802B20FFF7ACFF04462A2063
:10070000FFF7A8FF44EA002000B20F4908802D201F
:10071000FFF7A0FF04462C20FFF79CFF44EA0020CF
:1007200000B2094948802F20FFF794FF04462E208D
:10073000FFF790FF44EA002000B20349888010BD13
:10074000000802400A00002004000020F948006868
:1007500040F00100F74908600020F64908310860C0
:10076000F4480068F4490840F2490860F348091D5C
:100770000860F348EF4984310860F0481038091DDB
:100780000860EC48006820F48020EA4908600020F6
:10079000E8490C310860E7498C3108607047002156
:1007A000E44A921C117011460870704710B501465A
:1007B0000022002300204A11012A02D1DD4C2368C7
:1007C00008E0022A03D1DB4C7034236802E0D94CE4
:1007D0007434236801F01F02012494401C400CB1C2
:1007E000012000E0002010BD38B50020009000245A
:1007F000002500BF3120FFF7D9FF05460098401CB7
:1008000000900098B0F5A04F01D0002DF2D031201B
:10081000FFF7CCFF08B1012400E00024204638BDDA
:1008200001460020C34A106820F0F80040EAC100E9
:1008300010607047C349086070470021BD4A70329C
:1008400011701170012802D004280AD104E001219E
:10085000B84A7032117005E00521B64A7032117045
:1008600000E000BF00BF7047B7490860704770B52F
:10087000049C41EA82150126C6EB530645EA06456B
:10088000054345EA0465AB4E361D356070BDAD4984
:1008900008667047820142EA0172A64B84331A60EF
:1008A0007047A8498866704710B5830143EA016321
:1008B00043EA02739F4C8834236010BDA149086746
:1008C0007047A049C864704702460020994B08331E
:1008D000186820F0EC6042EA01031843954B083396
:1008E0001860704702460020924B0833186820F0C9
:1008F000784042EA010318438E4B08331860704772
:10090000014600208B4A0832106820F0030008439B
:100910001060704787480830006800F00C0070478E
:1009200001460020834A0832106820F0F000084396
:1009300010607047014600207E4A0832106820F49B
:10094000E05008431060704701460020794A0832A1
:10095000106820F4604040EAC10010607047F0B5B4
:10096000002100220024022500260223714F0837AF
:100970003F6807F00C0121B1042905D0082937D1BF
:1009800005E0724F076036E0714F076033E0694F52
:100990003F1D3F68C7F38056664F3F1D3F6807F015
:1009A0003F036EB16A4FB7FBF3F7DFF888C10CF174
:1009B000040CDCF800C0CCF3881C07FB0CF40CE042
:1009C000624FB7FBF3F7DFF86CC10CF1040CDCF8F5
:1009D00000C0CCF3881C07FB0CF4564F3F1D3F684A
:1009E000C7F301477F1C7D00B4FBF5F7076002E009
:1009F000564F076000BF00BF4E4F08373F6807F0F3
:100A0000F0010909534F7A5C0768D7404760494FA6
:100A100008373F6807F4E051890A4E4F7A5C47680F
:100A2000D7408760434F08373F6807F46041490B60
:100A3000484F7A5C4768D740C760F0BD002100F49A
:100A40004072B2F5407F0AD13A4A0832116821F467
:100A5000F811414A02401143364A08321160354AC2
:100A600070321268C0F30B031A43324B70331A60B2
:100A70007047354944390860704733494039086048
:100A8000704736490860704701460020294A8C3279
:100A9000106820F01F004A1E1043264A8C32106056
:100AA000704701460020234A8C32106820F4F85029
:100AB0004A1E40EA02201F4A8C32106070470146ED
:100AC00000201C4A8C32106820F44010084310604B
:100AD000704701460020174A8C32106820F440000D
:100AE00008431060704701460020124A8C3210689B
:100AF00020F440300843106070471949086070477F
:100B000039B10C4A3032126802430A4B30331A6052
:100B100006E0084A303212688243064B30331A60CE
:100B20007047F9B1034A343212680243014B34333F
:100B30001A601CE000380240FFFFF6EA1030002483
:100B40000030002000004742800E47420024F4009D
:100B500000127A0022000020FFFCFF0F5C014742D8
:100B6000E0114742854A12688243844B1A607047FD
:100B700039B1824A121D12680243804B1B1D1A6054
:100B800006E07E4A121D126882437C4B1B1D1A60D0
:100B9000704739B1794A0C3212680243774B0C33F3
:100BA0001A6006E0754A0C3212688243734B0C33AC
:100BB0001A60704739B1714A1032126802436F4BA4
:100BC00010331A6006E06D4A1032126882436B4B94
:100BD00010331A60704739B1684A243A12680243E8
:100BE000664B243B1A6006E0644A243A126882434A
:100BF000624B243B1A60704739B1604A203A126850
:100C000002435E4B203B1A6006E05C4A203A1268C1
:100C100082435A4B203B1A60704739B1574A1C3AFD
:100C200012680243554B1C3B1A6006E0534A1C3ABB
:100C300012688243514B1C3B1A60704739B14F4ACE
:100C4000143A126802434D4B143B1A6006E04B4ABB
:100C5000143A12688243494B143B1A60704739B109
:100C6000464A103A12680243444B103B1A6006E0B1
:100C7000424A103A12688243404B103B1A60704758
:100C800039B13E4A1C32126802433C4B1C331A6095
:100C900006E03A4A1C3212688243384B1C331A6011
:100CA000704739B1354A203212680243334B203342
:100CB0001A6006E0314A2032126882432F4B2033FB
:100CC0001A60704739B12D4A2432126802432B4B07
:100CD00024331A6006E0294A243212688243274BE3
:100CE00024331A60704739B1244A2C321268024307
:100CF000224B2C331A6006E0204A2C3212688243C1
:100D00001E4B2C331A60704739B11C4A30321268BE
:100D100002431A4B30331A6006E0184A3032126828
:100D20008243164B30331A60704739B1134A273A61
:100D300012780243114B273B1A7006E00F4A273AFC
:100D4000127882430D4B273B1A7070470B48403096
:100D5000006840F0807009494031086070470146E2
:100D60000020064A283A12680A400AB1012000E031
:100D70000020704701492639087070473438024016
:100D800010B504469848844208D101210846FFF76F
:100D900022FF00210120FFF71EFF76E093488442E6
:100DA00008D101210220FFF716FF00210220FFF7E2
:100DB00012FF6AE08E48844208D101210420FFF727
:100DC0000AFF00210420FFF706FF5EE08948844205
:100DD00008D101210820FFF7FEFE00210820FFF7BF
:100DE000FAFE52E08448844208D101211020FFF726
:100DF000F2FE00211020FFF7EEFE46E07F4884421D
:100E000008D101212020FFF7E6FE00212020FFF776
:100E1000E2FE3AE07A48844208D101214020FFF7FF
:100E2000DAFE00214020FFF7D6FE2EE0754884420E
:100E300008D101218020FFF7CEFE00218020FFF79E
:100E4000CAFE22E07048844208D101218015FFF7D4
:100E5000C2FE0021A015FFF7BEFE16E06B488442DB
:100E600008D101214015FFF7B6FE00216015FFF7FC
:100E7000B2FE0AE06648844207D101210015FFF75F
:100E8000AAFE00212015FFF7A6FE10BDF0B50A4608
:100E900000210023002400BF3DE0012505FA01F3F5
:100EA000156805EA03049C4234D105684F00032607
:100EB000BE40B543056015794E00B5400668354320
:100EC00005601579012D02D01579022D16D185689E
:100ED0004F000326BE40B543856055794E00B540AE
:100EE000866835438560456801268E40B543456078
:100EF000456896798E40B6B235434560C5684F0067
:100F00000326BE40B543C560D5794E00B540C668DE
:100F10003543C560491C1029BFD3F0BD4FF6FF71A2
:100F200001600021017141718171C171704708B583
:100F30004FF480320092009A0A430092009AC261F4
:100F4000C161009AC261C2690092C269009208BD83
:100F50000246002013690B400BB1012000E0002085
:100F600070470146086980B2704702460020536905
:100F70000B400BB1012000E000207047014648699A
:100F800080B2704701837047418370470AB1018383
:100F900000E0418370474161704742694A404261C5
:100FA0007047F0B5002300244D07ED0E02FA05F35B
:100FB000CE1000F1200555F826504E07F70E0F26EB
:100FC000BE40B543CF1000F1200646F82750CE10A2
:100FD00000F1200555F8265045EA0304CE1000F133
:100FE000200545F82640F0BD000002400004024004
:100FF00000080240000C02400010024000140240B1
:1010000000180240001C0240002002400024024060
:101010000028024010B50446FA48844208D1012154
:101020001020FFF71CFE00211020FFF718FE57E0EC
:10103000F548844209D101214804FFF7FFFD002152
:101040004FF40030FFF7FAFD4AE0F048844209D13E
:1010500001218804FFF7F2FD00214FF48020FFF703
:10106000EDFD3DE0EA48844209D10121C804FFF7C3
:10107000E5FD00214FF40020FFF7E0FD30E0E548FA
:10108000844209D101210805FFF7D8FD00214FF462
:101090008010FFF7D3FD23E0DF48844208D101210F
:1010A0002020FFF7DCFD00212020FFF7D8FD17E00E
:1010B000DA48844209D101218807FFF7BFFD0021EA
:1010C0004FF08040FFF7BAFD0AE0D548844207D1CF
:1010D00001214005FFF7B2FD00216005FFF7AEFDDD
:1010E00010BD2DE9FF4705460E460024A14600BF6E
:1010F000A046B08900B100BF2C8A24F44054F08887
:1011000004432C82AC8941F20C608443B08831895D
:101110000843718908430443AC81AC8A24F44074C9
:10112000B0890443AC826846FFF719FCB548854294
:1011300002D0B948854202D1DDF80C9001E0DDF81B
:101140000890A88900F4004040B109EBC90000EB09
:10115000091031684900B0FBF1F707E009EBC9005D
:1011600000EB091031688900B0FBF1F76420B7FB90
:10117000F0F004012009642101FB1078A88900F433
:10118000004040B1322000EBC800B0FBF1F000F0AD
:101190000700044308E0322000EB08106421B0FB94
:1011A000F1F000F00F0004432C81BDE8FF874FF4FD
:1011B0001651016000218180C18001810C21418193
:1011C00000218181704710B502460020108A20F46A
:1011D00070600B884C8823438C882343CC8823433E
:1011E0001843108210BD0021018041808180C180A0
:1011F000704721B1828942F40052828104E08289E1
:101200004DF6FF731A4082817047028B02F47F42D1
:101210000283028B0A430283704721B1828942F420
:101220000042828103E08289C2F30E02828170470C
:1012300021B1828A42F40062828204E0828A4FF203
:10124000FF731A4082827047C1F3080282807047A0
:1012500001468888C0F308007047028A4FF6F07391
:101260001A400282028A0A430282704721B18289AF
:1012700042F00202828104E082894FF6FD731A4037
:101280008281704782894FF2FF731A40828182897E
:101290000A4382817047028A4FF6DF731A40028246
:1012A000028A0A430282704721B1028A42F48042D4
:1012B000028204E0028A4BF6FF731A4002827047F2
:1012C000818941F001018181704721B1828A42F018
:1012D0000802828204E0828A4FF6F7731A40828203
:1012E0007047028BD2B20283028B42EA0122028350
:1012F000704721B1828A42F02002828204E0828A11
:101300004FF6DF731A408282704721B1828A42F021
:101310001002828204E0828A4FF6EF731A408282C2
:101320007047828A4FF6FB731A408282828A0A4390
:101330008282704721B1828A42F00202828204E0F6
:10134000828A4FF6FD731A40828270471AB1838AEF
:101350000B43838202E0838A8B4383827047F0B51C
:101360000346002400260025002040F66A17B942F3
:1013700000D100BF1846C1F3421401F01F06012737
:1013800007FA06F5012C01D10C3004E0022C01D142
:10139000103000E014301AB107682F43076002E0F4
:1013A0000768AF430760F0BD02460020B1F5007F3B
:1013B00000D100BF13880B400BB1012000E00020DA
:1013C000704701F40072B2F5007F00D100BFCA433C
:1013D0000280704770B502460024002300250020DB
:1013E00040F66A16B14200D100BFC1F3421501F0C8
:1013F0001F03012606FA03F3012D13D1968933400A
:1014000017E0000000100140004400400048004088
:10141000004C0040005000400014014000780040A3
:10142000007C0040022D02D1168A334001E0968AEA
:1014300033400C12012606FA04F41688344013B126
:101440000CB1012000E0002070BD10B50022002387
:1014500040F66A14A14200D100BF0A120124944050
:10146000A3B2DC43048010BD10B50446F6488442A4
:1014700008D101218014FFF7F2FB0021A014FFF72F
:10148000EEFB3CE0F148844208D101210014FFF753
:10149000D5FB00212014FFF7D1FB30E0EC4884425B
:1014A00008D10121C013FFF7C9FB0021E013FFF7AA
:1014B000C5FB24E0E748844208D101214014FFF72E
:1014C000CEFB00216014FFF7CAFB18E0E24884421B
:1014D00009D101210805FFF7C2FB00214FF480105C
:1014E000FFF7BDFB0BE0DD48844208D10121480530
:1014F000FFF7B5FB00214FF40010FFF7B0FB10BD64
:1015000010B50022028802F441520B884C88234314
:101510008C882343CC8823430C8923434C89234361
:101520008C892343CC8923431A430280838B4FF257
:10153000FF74234083830B8A038210BD2DE9F04F93
:10154000002502230024012700220026944690460D
:101550009146B0F81CA04FF2400B0AEA0B0AA0F823
:101560001CA04FF0020AA0F820A0858BD1F808A09B
:10157000BAF1020F01D100BF6CE0B1F804A0BAF1DA
:10158000000F01D1012700E00227DFF8D4A2DAF82A
:1015900000A00AF4000ABAF1000F09D0DFF8C0A2D7
:1015A000DAF800A02AF4000ADFF8B4B2CBF800A001
:1015B000DFF8ACA20AF17C0ADAF800A0CAF38818B6
:1015C000DFF89CA20AF17C0ADAF800A0CAF30279DB
:1015D000DFF88CA2AAF1040ADAF800A00AF03F0CA6
:1015E000DFF880A2BAFBFCFA0AFB08FABAFBF9F6AC
:1015F000B1F806A0BAF5007F0ED14FEA162A0AEB21
:101600008A0A4FEA4A0AD1F808B0BAFBFBFA0AF193
:10161000050A1FFA8AF20FE04FEA471AB6FBFAFAF8
:101620000AEB8A0A4FEA4A0AD1F808B0BAFBFBFA79
:101630000AF1050A1FFA8AF24FF00A0AB2FBFAF21F
:1016400002F00104A2EB040ACAF34F034FF6FF7A3B
:101650000AEA0424022B01DBFF2B01DD0223002414
:10166000B1F806A04AEA040A4AEA030AA0F820A050
:10167000B1F804A0B1F80CB04AEA0B0AB1F802B014
:101680004AEA0B0AB1F800B04AEA0B0A4AF4006AC7
:101690004AEA05058583BDE8F08F0021018041807D
:1016A0008180C180018141818181C18107210182C5
:1016B00070470021018041808180C18002218160CA
:1016C00000218181704721B1028842F040020280EE
:1016D00004E002884FF6BF731A400280704721B1C0
:1016E000828B42F48062828304E0828B4FF6FF3368
:1016F0001A408283704702884FF2FF731A400280BB
:1017000002880A4302807047B1F5804F04D10288F5
:1017100042F48042028004E002884BF6FF731A40D4
:10172000028070474FF6FF62914204D0028842F473
:101730008072028004E002884FF6FF631A40028044
:10174000704721B1828842F00402828004E08288DE
:101750004FF6FB731A408280704721B1828842F0B5
:101760001002828004E082884FF6EF731A40828074
:10177000704730B500220023848B4FF240052C4087
:10178000848302240484828B0C88B4F5007F01D00A
:101790000C8814B94FF4807308E00C88B4F5407FCE
:1017A00003D00C88B4F5807F00D100238C888D890C
:1017B0002C434D882C431C4344F400642243828311
:1017C00030BD0146888970478181704721B1028808
:1017D00042F40052028004E002884DF6FF731A4082
:1017E00002807047018841F48051018070470246B1
:1017F0000020012901D0108B00E0908A704701463B
:10180000088A70471AB183880B43838002E083887B
:101810008B438380704730B5002400230C110125D1
:10182000A540ABB21AB185881D43858002E085884A
:101830009D43858030BD0246002013890B400BB1CB
:10184000012000E0002070470030014000380040D7
:10185000003C004000340140005001400054014071
:101860000838024000127A00CA4302817047F0B57E
:101870000246002000240023002501F00F07012666
:10188000BE40B4B20B1101269E40B3B2968806EA60
:1018900003051689264016B10DB1012000E0002095
:1018A000F0BD10B5002201F00F040123A3409AB24D
:1018B000D343038110BD00000CB5002001900090BF
:1018C0007648006840F480307449086000BF73486F
:1018D000006800F4003000900198401C01900098CE
:1018E00018B90198B0F5A04FF1D16C48006800F428
:1018F000003010B10120009001E00020009000981D
:10190000012846D165484030006840F08050634966
:10191000403108606248006840F440406049086017
:101920005E48083000685D49083108600846006874
:1019300040F4004008600846006840F4A050086089
:101940005848091F0860081F006840F08070091F90
:10195000086000BF5148006800F000700028F9D00E
:1019600040F20570504908604C480830006820F08B
:1019700003004A49083108600846006840F0020048
:10198000086000BF45480830006800F00C000828D7
:10199000F8D10CBD10B54548006840F470004349CB
:1019A00008603E48006840F001003C4908600020A3
:1019B0003A4908310860394800683D4908403749CC
:1019C00008603C48091D0860081F006820F480205A
:1019D000091F0860002031490C310860FFF76CFFD7
:1019E0004FF0006031498039086010BD70B50020AB
:1019F0000022022300240221284D08352D6805F01D
:101A00000C0020B1042806D0082834D107E02A4D64
:101A10002A4E356033E02A4D284E35602FE01F4DA9
:101A20002D1D2D68C5F380541C4D2D1D2D6805F00E
:101A30003F0154B1224DB5FBF1F5184E361D366805
:101A4000C6F3881605FB06F209E01B4DB5FBF1F560
:101A5000124E361D3668C6F3881605FB06F20F4D8A
:101A60002D1D2D68C5F301456D1C6B00B2FBF3F510
:101A7000124E356003E0104D104E356000BF00BFC0
:101A8000064D08352D68C5F303150E4E705D0B4DE0
:101A90002D68C540094E356070BD00000038024019
:101AA0000070004008544007003C024088ED00E010
:101AB000FFFFF6FE103000240024F4003400002064
:101AC00000127A0038000020064880470648004788
:101AD000FEE7FEE7FEE7FEE7FEE7FEE7FEE7FEE7DE
:101AE000FEE7FEE7951900088901000830B50B46AE
:101AF000014600202022012409E021FA02F59D423E
:101B000005D303FA02F5491B04FA02F52844151E11
:101B1000A2F10102F1DC30BD064C074D06E0E068A1
:101B200040F0010394E8070098471034AC42F6D324
:101B3000FEF72EFBD01C0008F01C00080FB4054B6C
:101B400010B503A9044A029800F018F810BC5DF81B
:101B500014FB00006F0300084800002002E008C8E2
:101B6000121F08C1002AFAD170477047002001E017
:101B700001C1121F002AFBD1704700002DE9FF4F61
:101B800089B09B460446002506E025280BD05A461E
:101B90000B999047641C6D1C20780028F5D10DB07E
:101BA0002846BDE8F08F0027B8460122474900E0EB
:101BB000074314F8013F203B02FA03F00842F7D133
:101BC00020782E2819D114F8010F47F004072A288D
:101BD0000ED06FF02F022078A0F1300109290CD827
:101BE00008EB880102EB410100EB0108641CF2E7FD
:101BF0000A98641C50F8048B0A9020780028CED0F4
:101C0000642808D0692806D075281ED05A460B993A
:101C100090476D1C58E00A994FF00A0901C90A91D2
:101C2000002802DA40422D2102E0390504D52B219B
:101C30008DF82010012103E0F90704D02021F7E7F7
:101C40008A4608AE0DE00021FAE70A994FF00A092A
:101C500001C90A91F7E74946FFF748FF303106F816
:101C6000011D0028F7D1ADEB060000F1200978072F
:101C700001D44FF00108C84502DDA8EB090000E0DF
:101C800000208046002706E008A85A46C05D0B9950
:101C900090476D1C7F1C5745F6DB04E030205A4608
:101CA0000B9990476D1CB8F10001A8F10108F5DC13
:101CB00005E016F8010B5A460B9990476D1CB9F1D7
:101CC0000001A9F10109F4DC641C65E709280100A1
:101CD000F01C0008000000204C0000005C1B000805
:101CE0003C1D00084C000020040400006C1B000890
:101CF00000000000000000000000000000000000E4
:101D000000000000000000000000000000000000D3
:101D100000000000000001020304010203040607A2
:101D200008090000007A030A00000000000000001B
:0C1D30000102030406070809000000007F
:040000050800018965
:00000001FF
