:020000040800F2
:1000000000090020290200085B0D0008530D0008BC
:10001000570D000807040008C91800080000000078
:10002000000000000000000000000000B5140008FF
:100030003706000800000000E10D0008BD150008AB
:10004000430200084302000843020008430200087C
:10005000430200084302000843020008430200086C
:10006000430200084302000843020008430200085C
:10007000430200084302000843020008430200084C
:10008000430200080D040008430200084302000870
:10009000430200084302000843020008430200082C
:1000A000430200084302000843020008430200081C
:1000B000430200084302000843020008430200080C
:1000C00043020008430200084302000843020008FC
:1000D00043020008430200084302000843020008EC
:1000E00039060008430200084302000843020008E2
:1000F00043020008430200084302000843020008CC
:1001000000000000000000000000000043020008A2
:1001100043020008430200084302000843020008AB
:10012000430200084302000843020008430200089B
:100130004302000843020008000000000000000025
:1001400043020008430200084302000800000000C8
:10015000000000000000000000000000000000009F
:1001600000000000000000004302000843020008F5
:100170004302000800000000000000000000000032
:10018000000000004302000800F002F800F03CF814
:100190000AA090E8000C82448344AAF10107DA45E2
:1001A00001D100F031F8AFF2090EBAE80F0013F0F8
:1001B000010F18BFFB1A43F0010318478C1D000004
:1001C000AC1D0000103A24BF78C878C1FAD8520795
:1001D00024BF30C830C144BF04680C6070470000C1
:1001E0000023002400250026103A28BF78C1FBD840
:1001F000520728BF30C148BF0B6070471FB501F0E0
:100200009DFE1FBD10B510BD00F098F81146FFF718
:10021000F5FF01F041FD00F0B6F803B4FFF7F2FF7F
:1002200003BC00F07DF800000948804709480047FA
:10023000FEE7FEE7FEE7FEE7FEE7FEE7FEE7FEE796
:10024000FEE7FEE704480549054A064B70470000F3
:100250006116000889010008000300200009002041
:1002600000050020000500200EB5054614460E4688
:1002700013A000F044F8284600F041F816A000F062
:100280003EF8304600F03BF815A000F038F80021A9
:100290008DF80B100A210DF10A008DF80A1008E004
:1002A00094FBF1F201FB124294FBF1F4303200F8BE
:1002B000012D002CF4DC00F022F800F018F800000A
:1002C0002A2A2A20617373657274696F6E206661D1
:1002D000696C65643A2000002C2066696C6520001A
:1002E0002C206C696E6520007047704770470020B5
:1002F00000F01CF8FFF786FF012000F011F810B5A0
:10030000044602E0641C00F004F820780028F9D1CB
:1003100010BD08B569468DF800000320ABBE08BDCE
:1003200001491820ABBEFEE72600020010B500F020
:1003300035F8BDE8104000F02CB87047754600F065
:1003400045F8AE4605006946534620F0070085464D
:1003500018B020B5FFF776FFBDE820404FF000064B
:100360004FF000074FF000084FF0000B21F007019D
:10037000AC46ACE8C009ACE8C009ACE8C009ACE8E0
:10038000C0098D4670470446AFF300802046FFF752
:1003900044FF002801D0FFF7C3BF704710B500210C
:1003A00002A000F017F8012010BD0000534947419A
:1003B0004252543A2041626E6F726D616C207465D6
:1003C000726D696E6174696F6E000000004870475D
:1003D000A002002070B505460C460A2000E06D1C06
:1003E000FFF797FF35B128780028F8D102E0641CA8
:1003F000FFF78FFF14B120780028F8D1BDE87040D6
:100400000A20FFF786BF00BFFEE7000010B54FF0DF
:10041000007000F0D3F860B14FF0807000F00EF87B
:100420000021044800F018F800228021024801F061
:10043000CBF910BD800002400044004000F0805124
:1004400011B10349086001E00249486070470000AB
:10045000040402400000024021B1026842F001029F
:10046000026004E002684FF6FE731A4002607047B3
:1004700001684FF6FE721140016000210160416089
:100480008160C1604B49884208D14A4908394968AE
:1004900041F00F01474A083A51608AE0454914315A
:1004A000884208D143490839496841F0F001414A7E
:1004B000083A51607DE03F492831884208D13D49E2
:1004C0000839496841F470613A4A083A516070E06D
:1004D00038493C31884208D136490839496841F4E5
:1004E0007041344A083A516063E0324950318842E1
:1004F00008D130490839496841F470212D4A083A39
:10050000516056E02B496431884208D129490839A5
:10051000496841F47001274A083A516049E0254989
:100520007831884208D123490839496841F070611F
:10053000204A083A51603CE01F49884206D1011F19
:10054000096841F00F01021F116032E01A491431AD
:10055000884208D11849091F096841F0F001164A7C
:10056000121F116025E014492831884208D1124930
:10057000091F096841F470610F4A121F116018E0E9
:100580000D493C31884208D10B49091F096841F4E3
:100590007041094A121F11600BE00749503188422F
:1005A00007D10549091F096841F47021024A121F49
:1005B0001160704708000240080402400146002014
:1005C000002201F0805313B1054B1A6801E0054B7E
:1005D0001A6802EA01030BB1012000E00020704715
:1005E00000040240000002401AB103680B4303609C
:1005F00002E003688B430360704710B50022026875
:1006000047F6F0739A430C6A8B6823430C692343C3
:100610004C6923438C692343CC6923434C6A2343AD
:100620008C6A23431A4302608B8943600B688360A2
:100630004B68C36010BD704710B50C2000F072F815
:10064000002856D02B492C4A128888182B49096853
:100650008847284828490988014429480A680260CF
:100660008988818000200AE0234909880144214AC1
:10067000515C244A12881144224A1180401C0628E9
:10068000F2DB1D480088801D1B4908800846008851
:10069000F42813D11B480088C0431A490880154824
:1006A0000988A0F8F410F62101F0B6F91248008884
:1006B000801D114908800020124908800E480088DA
:1006C000B0F5F57F12D10F480088C0430D4908806E
:1006D00008480988A0F8EA11F621F63001F09CF9E3
:1006E0000420054908800020064908800C2000F0FD
:1006F0000BF810BDB40000200800002014000020FA
:100700000C0000200A00002000F01F02012191408F
:100710004209034B03EB4212C2F814147047000065
:100720000000014010B5014600204A09074B03EBC9
:100730004212D2F8142401F01F040123A3401A40EE
:100740000AB1012000E0002010BD000000000140BF
:1007500010B5002157498279002A7DD002685209DC
:10076000554B03EB4212D2F80024037803F01F0428
:100770000123A3409A4303685B094F4C04EB4313E6
:10078000C3F8002402685209234603EB4212D2F850
:100790000424037803F01F040123A3409A43036851
:1007A0005B09454C04EB4313C3F804240379026846
:1007B000520903EB421211440A68037803F01F0444
:1007C0000123A3401A430A603A49026852093A4B8E
:1007D00003EB4212D2F80824037803F01F0401232C
:1007E000A3409A4303685B09334C04EB4313C3F8FB
:1007F000082402685209234603EB4212D2F80C2463
:10080000037803F01F040123A3409A4303685B09A4
:10081000294C04EB4313C3F80C244279102A2AD143
:1008200002685209234603EB4212D2F808240378E7
:1008300003F01F040123A3401A4303685B091E4C05
:1008400004EB4313C3F8082402685209234603EB60
:100850004212D2F80C2400E01CE0037803F01F04DD
:100860000123A3401A4303685B09134C04EB4313B1
:10087000C3F80C241CE043790268520903EB4212CE
:1008800011440A68037803F01F040123A3401A43AC
:100890000A600DE003790268520903EB4212114429
:1008A0000A68037803F01F040123A3409A430A60F7
:1008B00010BD00000004014000000140F8B50446EE
:1008C0000D4616461F4620A00068009044EA050029
:1008D0008DF801000221684600F078F924B1082C57
:1008E00008D0102C12D10BE09FED180A184880EDAB
:1008F000000A11E09FED170A154880ED000A0BE091
:100900009FED150A124880ED000A05E04FF4F672DB
:1009100012A119A0FFF7A8FC00BF012E08D10C48B6
:1009200090ED000ADFED150A20EE200A80ED000AA6
:10093000012F01D1012000E0002002460221062003
:1009400001F07AFAF8BD00000300000000008038D2
:100950005C00002000000039000080396669735F88
:100960006472697665725C666973313130305F64D8
:1009700072697665722E630030000000C3F51C4179
:10098000F8B504460D4616461F4632A00068009092
:1009900044EA05008DF801000221684600F016F9CE
:1009A00004F0070090BBE010082836D2DFE800F022
:1009B000040A10161C22282F9FED270A274880EDD5
:1009C000010A30E09FED260A244880ED010A2AE062
:1009D0009FED240A214880ED010A24E09FED220AC0
:1009E0001E4880ED010A1EE09FED200A1B4880EDA5
:1009F000010A18E09FED1E0A184880ED010A12E076
:100A00009FED1C0A154880ED010A0CE005E0B4EEEC
:100A1000000A124880ED010A05E040F22A2216A1E0
:100A20001CA0FFF721FC00BF012E08D10B4890ED60
:100A3000010ADFED190A20EE200A80ED010A012FDC
:100A400001D1012000E0002002460821062001F02B
:100A5000F3F9F8BD040000000000803A5C000020BB
:100A60000000003B0000803B0000003C0000803C98
:100A70000000003D0000803D6669735F6472697626
:100A800065725C666973313130305F6472697665B6
:100A9000722E63003000000035FA8E3C38B50446F3
:100AA00004F0080008B144F0030408208DF80000A9
:100AB00004F00F008DF801000221684600F086F86E
:100AC00038BD000010B504460548002101604160B2
:100AD0008160C1600348046000F040F810BD000070
:100AE0005C0000200000002010B5044606222146CC
:100AF0001F2000F001F810BD2DE9F04104460E461C
:100B0000154610480068007E08B1802000E00020F3
:100B100007460C480068007E08B1402000E08020B5
:100B200080463C43012D01DD404600E000200443A7
:100B3000044800682A463146436820469847BDE885
:100B4000F08100000000002008B50122694617204E
:100B5000FFF7D2FF9DF8000008BD00000EB5184851
:100B60000068816801208847154800684169642051
:100B700088471348006881680020884700BF1049F3
:100B80000968C86880470028F9D000BF0C49096887
:100B9000C86880470028F9D10AA103C9CDE901013D
:100BA000022269460020FFF7A7FF072101A800F0F5
:100BB0000DF8942000F05EFF00F088FE0EBD0000EE
:100BC000000000200B0323A70F0101002DE9F843CB
:100BD00004460D4620480068007E08B1802000E0F1
:100BE000002007461C480068007E08B1402000E055
:100BF000802080462078B843207017480068007E27
:100C0000C8B1022D17DD207820EA080901260FE07F
:100C100009EB0600401EC0B28DF80000A05D8DF803
:100C200001000D4800680221026868469047761C62
:100C3000AE42EDDB0DE02078022D01DD414600E003
:100C400000210843207004480068294602682046B5
:100C50009047BDE8F883000000000020F0B50A4688
:100C6000002100240025002300BF3FE0012606FAF2
:100C700001F4166806EA0405A54236D11679012E5C
:100C800002D01679022E18D186684FEA410C03274C
:100C900007FA0CF7BE43866056794F00BE4087685E
:100CA0003E438660868801278F40BE4386808788C2
:100CB00096798E40B6B23743878006684FEA410C7A
:100CC000032707FA0CF7BE43066016794F00BE40B3
:100CD00007683E430660C3684F000326BE40B34327
:100CE000D6794F00BE403343C360491C1029BDD3A1
:100CF000F0BDF0B5002300244D07ED0E02FA05F318
:100D0000CE1000F1200555F826504E07F70E0F269D
:100D1000BE40B543CF1000F1200646F82750CE1054
:100D200000F1200555F8265045EA0304CE1000F1E5
:100D3000200545F82640F0BD02460020138A0B40EE
:100D40000BB1012000E000207047018570478161F0
:100D5000704700BFFEE700BFFEE7704770B5002197
:100D600000230F22C47804B3154C246804F4E06413
:100D7000C4F5E064210AC1F10403CA40447804FACE
:100D800003F184781440214309010E4C0678A155E3
:100D9000047804F01F050124AC4005786D11AD0006
:100DA00005F1E025C5F8004109E0047804F01F05CD
:100DB0000124AC40044D0678761145F8264070BDFC
:100DC0000CED00E000E400E080E100E002490143B6
:100DD000024A1160704700000000FA050CED00E0C7
:100DE0007047000029B1064A52690243044B5A6118
:100DF00004E0034A52698243014B5A617047000084
:100E00000010024029B1064AD2690243044BDA615C
:100E100004E0034AD2698243014BDA617047000063
:100E20000010024029B1064A92690243044B9A61BC
:100E300004E0034A92698243014B9A6170470000C3
:100E4000001002402DE9F0430022002600279446BE
:100E50000025002100230024DFF83C85D8F8048019
:100E600008F00C0222B1042A07D0082A30D109E088
:100E7000DFF82885C0F800802FE0DFF82085C0F873
:100E800000802AE0DFF81085D8F8048008F4701696
:100E9000DFF80485D8F8048008F480374FF00208A2
:100EA00008EB964627B9DFF8F88406FB08F10DE059
:100EB000DFF8E484D8F82C8008F00F0808F1010C62
:100EC000DFF8D884B8FBFCF808FB06F1016004E009
:100ED000DFF8C884C0F8008000BF00BFDFF8B88426
:100EE000D8F8048008F0F0021209DFF8B88418F886
:100EF0000240D0F8008028FA04F8C0F80480DFF837
:100F00009884D8F8048008F4E062120ADFF8948428
:100F100018F80250D0F8048028FA05F8C0F80880C4
:100F2000DFF87484D8F8048008F46052D20ADFF83D
:100F3000748418F80230D0F8048028FA03F8C0F856
:100F40000C80DFF85484D8F82C8008F4F872120969
:100F500002F00F08DFF8509439F8185002F010082A
:100F6000B8F1000F05D025B1B1FBF5F8C0F810803D
:100F700003E0D0F80080C0F81080DFF81C84D8F8B7
:100F80002C8008F47852520A02F00F08DFF8189407
:100F900039F8185002F01008B8F1000F05D025B14B
:100FA000B1FBF5F8C0F8148003E0D0F80080C0F879
:100FB0001480DFF8E483D8F8308008F01008B8F126
:100FC000100F04D0DFF8D483C0F8188003E0D0F805
:100FD0000080C0F81880DFF8C083D8F8308008F0AF
:100FE0002008B8F1200F04D0DFF8B083C0F81C80CF
:100FF00003E0D0F80080C0F81C80DFF89C83D8F8AC
:10100000308008F04008B8F1400F04D0DFF88C833E
:10101000C0F8208003E0D0F80080C0F82080DFF81E
:101020007883D8F8308008F48078B8F5807F0AD1CA
:10103000D0F80080884506D1A34204D14FEA410888
:10104000C0F8248003E0D0F80C80C0F82480DFF8DA
:101050004883D8F8308008F48058B8F5805F0AD10A
:10106000D0F80080884506D1A34204D14FEA410858
:10107000C0F8288003E0D0F80C80C0F82880DFF8A2
:101080001883D8F8308008F40078B8F5007F0AD1CA
:10109000D0F80080884506D1A34204D14FEA410828
:1010A000C0F82C8003E0D0F80C80C0F82C80DFF86A
:1010B000E882D8F8308008F48068B8F5806F0AD1EB
:1010C000D0F80080884506D1A34204D14FEA4108F8
:1010D000C0F84C8003E0D0F80C80C0F84C80DFF8FA
:1010E000B882D8F8308008F40068B8F5006F0AD1EB
:1010F000D0F80080884506D1A34204D14FEA4108C8
:10110000C0F8508003E0D0F80C80C0F85080DFF8C1
:101110008882D8F8308008F40058B8F5005F0AD10A
:10112000D0F80080884506D1A34204D14FEA410897
:10113000C0F8548003E0D0F80C80C0F85080DFF88D
:101140005882D8F8308008F40048B8F5004F0AD12A
:10115000D0F80080884506D1A34204D14FEA410867
:10116000C0F8588003E0D0F80C80C0F85880DFF851
:101170002882D8F8308008F00308B8F1000F04D1B5
:10118000D0F80C80C0F8388028E0DFF80C82D8F85E
:10119000308008F00308B8F1010F04D1D0F80080C6
:1011A000C0F838801AE0DFF8F081D8F8308008F015
:1011B0000308B8F1020F04D14FF40048C0F838809A
:1011C0000CE0DFF8D481D8F8308008F00308B8F1DB
:1011D000030F03D1DFF8C481C0F83880DFF8B8818D
:1011E000D8F8308008F44038B8F1000F04D1D0F8B6
:1011F0000880C0F83C8028E0DFF89C81D8F8308077
:1012000008F44038B8F5803F04D1D0F80080C0F829
:101210003C801AE0DFF88081D8F8308008F440384C
:10122000B8F5003F04D14FF40048C0F83C800CE012
:10123000DFF86481D8F8308008F44038B8F5403FD2
:1012400003D1DFF85881C0F83C80DFF84C81D8F832
:10125000308008F44028B8F1000F04D1D0F808809D
:10126000C0F8408028E0DFF83081D8F8308008F4FA
:101270004028B8F5802F04D1D0F80080C0F8408015
:101280001AE0DFF81481D8F8308008F44028B8F567
:10129000002F04D14FF40048C0F840800CE0DFF884
:1012A000F880D8F8308008F44028B8F5402F03D1F2
:1012B000DFF8E880C0F84080DFF8DC80D8F83080C4
:1012C00008F44018B8F1000F04D1D0F80880C0F835
:1012D000448028E0DFF8C080D8F8308008F4401857
:1012E000B8F5801F04D1D0F80080C0F844801AE01F
:1012F000DFF8A480D8F8308008F44018B8F5001F53
:1013000004D14FF40048C0F844800CE0DFF8888036
:10131000D8F8308008F44018B8F5401F03D1DFF842
:101320007C80C0F84480DFF87080D8F8308008F402
:101330004008B8F1000F04D1D0F80880C0F8488008
:1013400028E0DFF85480D8F8308008F44008B8F579
:10135000800F04D1D0F80080C0F848801AE0DFF890
:101360003880D8F8308008F44008B8F5000F04D170
:101370004FF40048C0F848800CE0DFF81C80D8F833
:10138000308008F44008B8F5400F03D1DFF80C8036
:10139000C0F84880BDE8F0830010024000127A00D7
:1013A00000093D00180000202800002021B102881B
:1013B00042F04002028004E002884FF6BF731A40F8
:1013C000028070470246002013890B400BB10120B8
:1013D00000E00020704730B500224B88B3F5827FD3
:1013E00019D1028802F44152CB880C8923434C89DD
:1013F0008D892C43CD892C4323430C884D882C4365
:1014000023431A43028082884FF2FF031A408B88DD
:101410001A43828018E082884FF2FF031A408B88BB
:101420001A438280028802F44152CB880C892343FC
:101430004C898D892C43CD892C4323430C884D88BE
:101440002C4323431A430280838B4FF2FF742340C3
:1014500083830B8A038230BD10B5044600BF02218E
:101460000948FFF7AFFF0028F9D02146064800F0F1
:101470001CF800BF01210448FFF7A4FF0028F9D0A1
:10148000014800F003F810BD00380040014600227A
:101490000A460C321078704782884EF6FF731A4065
:1014A000828082880A4382807047002202460C3282
:1014B000117070477047000030B500228B071C0F79
:1014C0000F2303FA04F20B4B8C1053F82430934390
:1014D000084C8D1044F8253023468C1053F82430E6
:1014E0008C07240F00FA04F42343024C8D1044F8B7
:1014F000253030BD080001400CB50020019000905F
:101500002C48006840F480302A49086000BF294810
:10151000006800F4003000900198401C0190009891
:1015200018B90198B0F5A04FF1D12248006800F435
:10153000003010B10120009001E0002000900098E0
:10154000012836D112201C4908601A484068194900
:1015500048600846406848600846406840F480603B
:1015600048600846406820F47C104860084640689F
:1015700040F4E81048600846006840F08070086059
:1015800000BF0C48006800F000700028F9D009483E
:10159000406820F00300074948600846406840F072
:1015A0000200486000BF0348406800F00C000828B3
:1015B000F9D10CBD0010024000200240704700002D
:1015C00030B50021002000220023204C646804F084
:1015D0000C0121B1042906D0082925D107E01C4CB3
:1015E0001C4D2C6024E01A4C1A4D2C6020E0174C46
:1015F000646804F47010154C646804F480320224AA
:1016000004EB904022B9144C4443124D2C600AE084
:101610000E4CE46A04F00F04631C0D4CB4FBF3F4AD
:1016200044430C4D2C6003E0094C0A4D2C6000BF74
:1016300000BF064C6468C4F30314084D295D054CD3
:101640002468CC40034D2C6030BD000000100240E7
:1016500000127A004800002000093D004C000020E4
:101660001948006840F4700017490860174800687E
:1016700040F00100154908600846406814490840D8
:101680001249486008460068124908400F4908603E
:101690000846006820F4802008600846406820F46E
:1016A000FE0048600846C06A20F00F00C862084685
:1016B000006B094908400549086300208860C80399
:1016C000014980390860704788ED00E00010024051
:1016D0000CC07FF8FFFFF6FECCFC00FF01627047F4
:1016E00021B1026842F00102026003E0026822F0C8
:1016F000010202607047000000B589B00121880432
:10170000FFF770FB01210846FFF76CFB012148043D
:10171000FFF778FB072203212748FFF7EAFA0722A1
:1017200004212548FFF7E5FA02208DF80400032084
:101730008DF8050000208DF8060001208DF80700C7
:101740000820009069461C48FFF788FA1020009096
:1017500069461948FFF782FA184803900020049060
:101760000590069008900C20079003A9144800F0FB
:1017700035F84FF4A060FFF729FB26208DF808000C
:1017800000208DF809008DF80A0001208DF80B006B
:1017900002A8FFF7E3FA00200A498861C8610861DE
:1017A0008020486100200862886201210448FFF718
:1017B00097FF09B000BD00000004004840420F0040
:1017C000004400406C0000201AB183680B43836022
:1017D00002E083688B438360704700002DE9F0418D
:1017E00098B004460D460027B8460026206820F031
:1017F00001002060666826F44056A86806436660CB
:10180000266841F20C608643E968686808432969E4
:10181000084306432660A66826F4407668690643B6
:10182000A66001A8FFF70EFB2348844202D1DDF831
:101830003C8013E02148844202D1DDF840800DE075
:101840001F48844202D1DDF8448007E01D488442ED
:1018500002D1DDF8488001E0DDF84C80206800F41A
:10186000004060B14FEA48002968B0FBF1F74FEA49
:1018700048002968B0FBF1F201FB120607E0286876
:10188000B8FBF0F72868B8FBF0F100FB1186286878
:10189000B6EB500F00D37F1C206800F4004038B135
:1018A000C7F342064FF6F07107EA010040EA060767
:1018B000A78118B0BDE8F081003801400044004025
:1018C00000480040004C004000BFFEE700B58BB070
:1018D00045A000680A9003210AA8FFF777F943A002
:1018E00000680990022109A8FFF770F940480068D4
:1018F00041694048884700BFFFF726F900F0010022
:101900000028F9D03CA000680890022108A8FFF741
:101910005DF9022108A8FFF759F938A0006807907F
:10192000022107A8FFF752F93148006841693148A0
:10193000884700BFFFF708F900F080000028F9D0C1
:101940002FA000680690022106A8FFF73FF928485B
:1019500000684169274888472AA00068059003214C
:1019600005A8FFF733F9012204A90D20FFF7C4F8F9
:1019700025A0006803909DF8100000F07F008DF80E
:101980000D00032103A8FFF721F9012204A90F206C
:10199000FFF7B2F81DA0006802909DF8100000F05B
:1019A000F0008DF80900022102A8FFF70FF918A036
:1019B00000680190032101A8FFF708F915A000684D
:1019C000009002216846FFF701F909480068416963
:1019D0000848884700BFFFF7B7F800F080000028EC
:1019E000F9D00BB000BD00000BFECA000A100000C9
:1019F00000000020A08601000A000000090100008C
:101A0000090300003E02BA000D0032000F00000082
:101A10003E0000000900000070B504460D46124863
:101A2000FEF726FD012202210F48FEF7DDFD0F48DB
:101A30000F49086008468581446010208860400294
:101A400048620948FEF7D9FD01228021074828385D
:101A5000FFF7BAFE402105482838FFF73FFE012175
:101A60000148FEF7F9FC70BD8000024028440040A8
:101A70006C0000201CB5044600BF18490968C868FE
:101A800080470028F9D10A208DF804008DF8054020
:101A9000022101A8FFF79AF800BF10490968C86839
:101AA00080470028F9D000200090012269461720C5
:101AB000FFF722F89DF8000000F0010000B104E0FB
:101AC0007B2207A10DA0FEF7CFFB00BF03490968E9
:101AD000C86880470028F9D11CBD00000000002024
:101AE0006669735F6472697665725C6669733131C9
:101AF00030305F6472697665722E6300737461744E
:101B00007573202620464953313130305F5354419C
:101B1000545553315F434D445F444F4E45000000E0
:101B200010B512481249086012484860124888608F
:101B30001248C860124808611248486101200876BE
:101B40000846FEF7BFFF0023012219461020FEF7CA
:101B5000B5FE0D480D49086000230122062128200A
:101B6000FEF70EFF0220FEF799FF10BD091E0008C8
:101B7000980000206D1D0008E51D0008AD1D00083F
:101B8000C91D0008E11C0008E90A00081400002033
:101B90001CB501214FF44020FFF724F9012108462C
:101BA000FFF740F94FF40040009001208DF8040049
:101BB00000208DF8060001208DF8070003208DF825
:101BC000050069461A48FFF749F84FF400411848E4
:101BD000FFF7BDF84FF40060009001208DF804007D
:101BE00000208DF8060001208DF8070003208DF8F5
:101BF000050069460F48FFF731F84FF400610D48C2
:101C0000FFF7A3F84FF4A040009000208DF80400E7
:101C100002208DF8070003208DF80500694604486E
:101C2000FFF71CF800F026F9FFF766FD1CBD000069
:101C300000080048000400480EB50C210220FFF700
:101C40003BFC0C2001908DF8090000208DF8080065
:101C500001208DF80A0001A8FEF77AFD28208DF8F2
:101C600000000F208DF801008DF8020001208DF892
:101C700003006846FFF772F811208DF8000000207D
:101C80008DF801008DF8020001208DF803006846F0
:101C9000FFF764F80EBD0000FFF72EFCFFF790FC85
:101CA00000200AE00B49095C0B4A115409490A5CFF
:101CB00000F1F601084B5A54401C0428F2DB0420C2
:101CC00006490880FFF764FFFFF72AFFFFF7B4FF1C
:101CD00000BFFEE704000020B40000200800002040
:101CE000002140E000BF00BF00BF00BF00BF00BF39
:101CF00000BF00BF00BF00BF00BF00BF00BF00BFEC
:101D000000BF00BF00BF00BF00BF00BF00BF00BFDB
:101D100000BF00BF00BF00BF00BF00BF00BF00BFCB
:101D200000BF00BF00BF00BF00BF00BF00BF00BFBB
:101D300000BF00BF00BF00BF00BF00BF00BF00BFAB
:101D400000BF00BF00BF00BF00BF00BF00BF00BF9B
:101D500000BF00BF00BF00BF00BF00BF00BF00BF8B
:101D600000BF00BF491C8142BCD370472DE9F04140
:101D700007460D4616464FF400410B48FEF7E5FFB7
:101D80003846FFF769FB002404E0FF20FFF764FBFF
:101D90002855641CB442F8DB4FF400410248FEF7BA
:101DA000D6FFBDE8F08100000008004810B54FF4F0
:101DB00080510448FEF7C0FF002801DD012010BD5E
:101DC0000020FCE70008004810B54FF480410448AB
:101DD000FEF7B2FF002801DD012010BD0020FCE766
:101DE0000008004810B504462CB14FF400610548C6
:101DF000FEF7ADFF04E04FF400610248FEF7A5FFD7
:101E000010BD00000004004870B505460E464FF4B2
:101E100000410848FEF799FF002403E0285DFFF722
:101E20001BFB641CB442F9DB4FF400410148FEF790
:101E30008EFF70BD00080048F8B505460C461646F2
:101E400001220DF101012846FEF756FE2EB19DF844
:101E5000010020438DF8010004E09DF80100A0433B
:101E60008DF801008DF8005002216846FEF7AEFEA5
:101E7000F8BD000010B588B001218803FEF7C2FF4D
:101E80004FF46040069002208DF81C0000208DF871
:101E90001E0001208DF81F0003208DF81D0006A9EB
:101EA0002448FEF7DBFE05220D212248FEF721FF24
:101EB00005220E211F48FEF71CFF05220F211D4899
:101EC000FEF717FF0020ADF804004FF48270ADF864
:101ED00006004FF4E060ADF808000220ADF80A00FB
:101EE0000120ADF80C004002ADF80E000820ADF85E
:101EF00010000020ADF812000720ADF8140001A971
:101F00000D48FFF768FA4FF480510B48FFF7C4FA09
:101F100000BF02210848FFF755FA0028F9D0012137
:101F20000548FFF743FAFF20FFF796FA044608B08A
:101F300010BD000000040048003800404FF0407021
:101F4000E1EE100A70470000681F00080000002042
:101F50005C000000C4010008C41F00085C000020F1
:101F6000A4080000E001000800000000FFFE00F2ED
:101F70000000000000000000000000000000000061
:101F8000000000000102030401020304060708091F
:101F9000010002000400060008000A000C00100006
:101FA0002000400080000001000000000000000050
:101FB00000127A000000000000000000010203048B
:041FC00006070809FF
:0400000508000229C4
:00000001FF
