:03000000020552A4
:0C055200787FE4F6D8FD758174020599ED
:1009E500D3EF9400EE940040147D107C00ED1D7053
:0D09F500011CED4C70F7EF1F70E61E80E353
:010A020022D1
:0F0B8A00C293D292C294D2907F057E000209E5F9
:10000300E4FEEF30E704D2918002C291EF25E0FFD6
:0E001300D293309203430701C2930EBE08E45D
:0100210022BC
:030BF200C290228C
:030BF500D2902279
:070BDF00800A0F0100000075
:10042F00120BF5120B8A7F207EA17D077C0012082C
:10043F00F51209C47B707A887D047C007F23120A31
:10044F00A87514077513A97512027511257D0C7CFB
:10045F00007F23120B997B557A007D127C007F233E
:10046F00120AA87B0A7D02120AA27B877D04120A58
:10047F00A27B647A007D06120AA475149A75130084
:10048F0075121A7511357D087C007F27120B997B29
:10049F000D7D067C087F2E120B567B077A167D0684
:1004AF007C187F2E120AA87428F514F513F512F58F
:1004BF0011E4FDFC7F1E120B997BD87D0B7C007F16
:1004CF0028120B567514E075133F75121E75110027
:1004DF007D0C7C007F28120B997BC07D0B7C007FED
:1004EF002A120B5675141D75130475120075110819
:1004FF007D077C007F2B120B997BA67D0B7C007FE9
:10050F002B120B5612099A7B807A097D017C007F92
:10051F0008120AA87B447D027C007F04120B567BD5
:10052F00007A40E4FDFC7F18120AA87B007A407D18
:10053F00047C187F2E120AA87B207D037C007F0489
:03054F00020B5646
:10096C00E4FFFDEA494B600B786FA60308A602086A
:10097C00A6010FE53F4540453E6010AA3FA94078CF
:0E098C0072A63E08A60208A6017D01020A55C9
:100A03007B007A007955751800751904E4FDFCFF25
:0B0A13001208ADAF58AE57AD56AC5501
:010A1E0022B5
:100A1F007B007A007941751800751908E4FDFC7F99
:0A0A2F00011208AD7B007A00794146
:010A3900229A
:100B2B007B007A007946751B00751C08E4FDFC7F81
:040B3B00010207D5D7
:1005DE0078347C007D007BFF7A0B79DF7E007F070D
:1005EE0012037C7B007A007934751B00751C027D2A
:1005FE00117C007F281207D57B007A007936751B97
:10060E0000751C017D127C007F281207D57A0079B7
:10061E00371207C87A0079381207C87B007A00793A
:10062E00397518007519027D037C007F2A1208ADFA
:10063E00AC39E412022E7B117AC779BA783B1201DB
:0C064E001E7B337A337913784012002DA4
:01065A00227D
:060BE6007F0F120A8922B4
:060BEC007F15120A8922A8
:090BD600E4FDFC7F17120A8C22D9
:100A70008B598A5A895B120B16EF2401FDE43EFC68
:090A8000AB59AA5AA95B0206D188
:100A3A008B5C8A5D895E120B018E188F19AB5CAADA
:0B0A4A005DA95EE4FDFC7F110208AD19
:0406D1008C5F8D604D
:1006D500C3E560947DE55F94004006755F00756035
:1006E5007D855F1B85601CE4FDFC7F091207D51223
:1006F5000ABB74022560F560E4355FF55FEF54FCD5
:10070500FEE55F54034EF55FE560F560FBAA5FE427
:10071500FDFC7F08120AA8120BC27B027F0D120B8B
:0407250053020BB7B9
:04065B008C258D2637
:10065F00C3E526947DE52594004006752500752693
:10066F007D85251B85261CE4FDFC7F091207D5120D
:10067F000ABB74022526F526E43525F525EF54FC33
:10068F00FEE52554034EF525E526F526FBAA25E4C0
:10069F00FDFC7F08120AA8782F7C007D007B007A72
:1006AF000079277E007F0512037CE4FDFC7F0A1290
:1006BF000BA8120BC27B06E4FDFC7F0D120B56023A
:0206CF000BB767
:0B0BB7007B017D017C007F0D020B56CE
:0A0BC2007B40E4FDFC7F0D020B56A2
:10099A007B017A03E4FDFC7F36120AA87B007A8089
:1009AA007D067C007F2D120AA87F961208EF7B0035
:0A09BA007A02E4FDFC7F36020AA871
:100AEB007BE07D037C007F36120B567BF07D037C15
:060AFB00007F36020B56DD
:1009C4007B017F36120B53E4FB7D03FC7F36120B55
:1009D400567F0A1208EF7BF07D037C007F36020B02
:0109E40056BC
:100A5500EFC4333354C0FAED75F080A4FFE5F04AD6
:0B0A6500FAEFFBE4FDFC7F0E020AA884
:10077B00120BE6784B7C007D007E007F0512037C1C
:10078B00E54E5440FEEE6017786F08E6FA08E6F97E
:10079B001204107B007A6FE4FDFC7F0F120AA8E5B0
:1007AB004F5480FFEF6015787208E6FA08E6F912ED
:0C07BB0004107BF8E4FDFC7F0F120B56CD
:0107C700220F
:100B0100E4FDFC7F10120B3FEE5403FEEF24FEFFC9
:040B1100EE34FFFEC1
:010B150022BD
:060ABB007D017C007F08B4
:100AC1007B007A0079617518007519011208ADAFC4
:010AD10061C3
:010AD2002201
:100B3F007B007A00790E7518007519021208ADAE98
:030B4F000EAF0FD7
:010B52002280
:100AD3007B007A00790E7518007519041208ADAF02
:070AE30011AE10AD0FAC0EC7
:010AEA0022E9
:030A8900E4FDFC8D
:100A8C007B007A0079507518007519051208AD7B3A
:050A9C00007A00795012
:010AA1002232
:030B5300E4FDFCC2
:100B56008B0E7B007A00790E751B00751C0102074F
:010B6600D5B9
:060AA2007A007C007F27B2
:100AA8008A0E8B0F7B007A00790E751B00751C026D
:030AB8000207D55D
:0F0B99007B007A007911751B00751C040207D5CB
:0F0BA8007B007A00792F751B00751C050207D59D
:0608AD008B158A16891765
:1008B300E4FB120729E51924FFF51BE51834FFF5BE
:1008C3001AC3E51A64809480401FE4FF120003AB4F
:1008D30015AA16A917851B82851A83EF1203CFE584
:0C08E3001B151B70DC151A80D8020BF5E9
:0D07C8007B00751B00751C01E4FDFC7F2A01
:0607D5008B188A19891A35
:1007DB007B01120729E51C24FFF51EE51B34FFF5F1
:1007EB001DC3E51D64809480401DAB18AA19A91A7E
:1007FB00851E82851D831203A2FF120003E51E15C1
:0A080B001E70DE151D80DA020BF5E9
:100729008F1F8C208D21EB75F080A4421F120BF2D4
:10073900D3E5219400E52094004031E51F4440FFB2
:10074900120003D3E521947FE5209400401AE521A6
:10075900547F4480FF120003E521AE207807CEC301
:1007690013CE13D8F9FF8006AF218002AF1F120004
:02077900032259
:0608EF007E007D007C008C
:0808F5008F118E108D0F8C0E87
:1008FD00E4FFFEFDFCAB11AA10A90FA80ED3120345
:10090D00FF401E7F08DFFEE51124FFF511E51034D1
:10091D00FFF510E50F34FFF50FE50E34FFF50E80F2
:01092D00CFFA
:01092E0022A6
:090BCC00016D00016C00016E01D5
:100B6700759850438E0475D7BF75D6FF438E0143E2
:030B77008E1022BB
:030BF800C2952281
:0300230002092FA0
:10092F00C0E0C0F0C0D075D000C000C00130992227
:10093F00C299796DE7786C66601408E6062462F850
:10094F00E6F599786DE675F00A84A6F08004786E66
:0D095F007601D001D000D0D0D0F0D0E03231
:100B7A00E4F589538E7F758C4BF58AD2A9D28C22E3
:060862008B0E8A0F8910C5
:10086800E4FF786EE66012E4F6AB0EAA0FA9100F4B
:10087800F582F5831203A2F599EFC39D5026AB0EBE
:10088800AA0FA910AE070F8E827583001203A2FE6D
:10089800786CE6062462F8A606786CE675F00A8499
:0408A800A6F080D561
:0108AC002229
:10081500120B67120B8A120BF8D2AFD2AC12042F4F
:10082500B295786EE660FB7D067C007F27120B3F54
:100835008E0C8F0D7B007A00790C7D021208627D8B
:10084500087C007F27120AD38F0B8E0A8D098C082E
:0B0855007B007A0079087D0412086225
:0208600080C353
:10002600020297E86480F8E933E83360110460F06F
:10003600ED33EC337009E8FCE9FDEAFEEBFF220440
:1000460060DED3EB9FEA9EE99DE8C2E78CF0C2F73B
:1000560095F0400CE8CCF8E9CDF9EACEFAEBCFFB07
:1000660012026285D0F05804700320D5B3E80470FC
:10007600075002B2D50202A192D5EC0460F7E4CC97
:10008600C0E0C398F8603B94186008400DD0E0FBD0
:10009600020279E4FBFAC9FC8028E830E406E4C9E8
:1000A600FBE4CAFCE830E305E4C9CACBFCE8540724
:1000B6006010F8C3E913F9EA13FAEB13FBEC13FC2F
:1000C600D8F130F52FC3E49CFCEF9BFFEE9AFEEDD2
:1000D60099FDD0E0FBEF4E4D4C701222DB0302027D
:1000E6009EEC2CFCEF33FFEE33FEED33FDED30E7F7
:1000F600EB020279EF2BFFEE3AFEED39FDD0E0FB85
:1001060050130BBB00030202A1ED13FDEE13FEEF2D
:0801160013FFEC13FC02027957
:10011E00EC4D6011E8497017ED33EC3304600DE4DB
:10012E00FCFFFEFD22E933E8330470F80202971259
:10013E00026258046009E4CC24815006285009025A
:10014E0002A128400302029EC0E0EB4A7044B9802F
:10015E0006D0E0FB02028DEF4E701CBD8008EBFF57
:10016E00EAFEE9FD80EBE98DF0A4FEE5F002020760
:10017E00E9CDF9EAFEEBFFEF89F0A4FCE5F0CE89BC
:10018E00F0A42EFFE435F0CD89F0A42DFEE435F079
:10019E008067EF4E7005BD80D780C3EF8BF0A4ACA7
:1001AE00F0EE8BF0A42CFCE435F0F8EF8AF0A42CE2
:1001BE00E5F038FCE433CB8DF0A42CFCE5F03BF8F5
:1001CE00EE8AF0A42CFCE5F038F8E433CF89F0A4E5
:1001DE002CFCE5F038CF3400CE89F0A42FFFE5F0EB
:1001EE003EFEE433C98DF0A42EFEE5F039CD8AF043
:1001FE00A42FFFE5F03EFEE43DFD33D0E0FB5007BB
:10020E000BBB000F0202A1EC2CFCEF33FFEE33FE12
:06021E00ED33FD02027940
:1002240075F020800E75F010800575F0087D007E55
:10023400007F003392D530D5031203F1EC33401024
:10024400EF33FFEE33FEED33FDEC33FCD5F0ED225E
:0E025400E5F0247EA2D513CC92E7CDCEFF229A
:10026200E9D2E7C933E833F892D5EDD2E7CD33ECE2
:0702720033FC5002B2D5225B
:10027900EC30E7100FBF000C0EBE00080DBD0004E6
:100289000BEB6014A2D5EB13FCED92E7FD2274FF92
:10029900FCFDFEFF22E480F8A2D574FF13FC7D80EB
:0302A900E480EFFF
:10055E00020815E493A3F8E493A34003F68001F296
:10056E0008DFF48029E493A3F85407240CC8C3339E
:10057E00C4540F4420C8834004F456800146F6DF6D
:10058E00E4800B0102040810204080900BCCE47E26
:10059E00019360BCA3FF543F30E509541FFEE49362
:1005AE00A360010ECF54C025E060A840B8E493A329
:1005BE00FAE493A3F8E493A3C8C582C8CAC583CA54
:1005CE00F0A3C8C582C8CAC583CADFE9DEE780BE0C
:010BD500001F
:1002AC00E709F608DFFA8046E709F208DFFA803E34
:1002BC0088828C83E709F0A3DFFA8032E309F60821
:1002CC00DFFA8078E309F208DFFA807088828C8389
:1002DC00E309F0A3DFFA806489828A83E0A3F6083D
:1002EC00DFFA805889828A83E0A3F208DFFA804C17
:1002FC0080D280FA80C680D4806980F280338010EE
:10030C0080A680EA809A80A880DA80E280CA803356
:10031C0089828A83ECFAE493A3C8C582C8CCC583CE
:10032C00CCF0A3C8C582C8CCC583CCDFE9DEE7809E
:10033C000D89828A83E493A3F608DFF9ECFAA9F01D
:10034C00EDFB2289828A83ECFAE0A3C8C582C8CC73
:10035C00C583CCF0A3C8C582C8CCC583CCDFEADE8C
:10036C00E880DB89828A83E493A3F208DFF980CCEE
:10037C0088F0EF60010E4E60C388F0ED2402B404E7
:10038C000050B9F582EB2402B4040050AF2323458E
:06039C0082239002FC73B5
:1003A200BB010CE58229F582E5833AF583E0225010
:1003B20006E92582F8E622BBFE06E92582F8E2225A
:0D03C200E58229F582E5833AF583E4932274
:1003CF00F8BB010DE58229F582E5833AF583E8F064
:1003DF00225006E92582C8F622BBFE05E92582C810
:0203EF00F222F8
:0E03F100C3E49FFFE49EFEE49DFDE49CFC221D
:1003FF00EB9FF5F0EA9E42F0E99D42F0E89C45F054
:01040F0022CA
:060410008A838982E47377
:100B1600E4FFFE120416600C0FEF70010E09E97077
:050B2600F20A80EF223D
:10041600BB010689828A83E0225002E722BBFE02E4
:09042600E32289828A83E4932217
:00000001FF
